:020000040800F2
:10000000480B002089010008C5320008112D0008A6
:10001000C1320008C1070008BD3D00080000000013
:10002000000000000000000000000000F1330008A4
:10003000D50A000800000000C9320008F3330008A8
:10004000A3010008A3010008A3010008A301000800
:10005000A3010008A3010008A3010008A3010008F0
:10006000A3010008A3010008A3010008350A000845
:10007000A3010008A3010008A3010008450A000825
:10008000550A0008A3010008A3010008A301000805
:10009000A3010008A3010008A3010008A3010008B0
:1000A000A3010008A3010008A3010008A3010008A0
:1000B000A3010008A301000885340008A30100087B
:1000C000A3010008A3010008A3010008A301000880
:1000D000A3010008153C0008E93C0008A301000842
:1000E000A3010008A3010008A301000800F002F822
:1000F00000F03AF80AA090E8000C82448344AAF188
:100100000107DA4501D100F02FF8AFF2090EBAE885
:100110000F0013F0010F18BFFB1A43F0010318473B
:10012000484E0000684E0000103A24BF78C878C1DD
:10013000FAD8520724BF30C830C144BF04680C60ED
:10014000704700000023002400250026103A28BF35
:1001500078C1FBD8520728BF30C148BF0B60704739
:100160001FB51FBD10B510BD00F0AEF81146FFF76A
:10017000F7FF04F01FF800F0CCF803B4FFF7F2FF2C
:1001800003BC00F0D3F80000094880470948004745
:10019000FEE7FEE7FEE7FEE7FEE7FEE7FEE7FEE737
:1001A000FEE7FEE704480549054A064B7047000094
:1001B00081340008ED00000848050020480B0020AD
:1001C000480700204807002040EA010310B59B07BC
:1001D0000FD1042A0DD310C808C9121F9C42F8D0B1
:1001E00020BA19BA884201D9012010BD4FF0FF3062
:1001F00010BD1AB1D30703D0521C07E0002010BD78
:1002000010F8013B11F8014B1B1B07D110F8013B03
:1002100011F8014B1B1B01D1921EF1D1184610BDE4
:1002200002F0FF0343EA032242EA024200F002B86E
:100230004FF000020429C0F0128010F0030C00F00F
:100240001B80CCF1040CBCF1020F18BF00F8012B8D
:10025000A8BF20F8022BA1EB0C0100F00DB85FEA5B
:10026000C17C24BF00F8012B00F8012B48BF00F827
:10027000012B70474FF0000200B513469446964696
:10028000203922BFA0E80C50A0E80C50B1F12001A9
:10029000BFF4F7AF090728BFA0E80C5048BF0CC057
:1002A0005DF804EB890028BF40F8042B08BF7047B5
:1002B00048BF20F8022B11F0804F18BF00F8012B27
:1002C0007047704770477047754600F02BF8AE4690
:1002D00005006946534620F00700854618B020B552
:1002E000FFF760FFBDE820404FF000064FF0000729
:1002F0004FF000084FF0000B21F00701AC46ACE8CE
:10030000C009ACE8C009ACE8C009ACE8C0098D463A
:10031000704710B50446AFF300802046BDE810409A
:10032000FFF72BBF00487047E40400200149182064
:10033000ABBEFEE726000200704770B504460025FC
:100340002068806800F0010018B32068806820F001
:1003500001002168886001F091FA054613E001F080
:100360008DFA401B02280ED92068806800F0010039
:1003700048B1A06A40F01000A062E06A40F00100BD
:10038000E062012070BD2068806800F00100002854
:10039000E5D10020F6E770B505466C6AA06A00F06A
:1003A0005000E0B9A06A40F40070A0622068806844
:1003B00000F46020B0F5602F0DD1207B58B9A06A01
:1003C00020F48070A062A06A00F4805018B9A06A7E
:1003D00040F00100A062204600F008FD03E0206A22
:1003E000016B2846884770BD70B505466C6AA06AE7
:1003F00040F04000A062E06A40F00400E062204665
:1004000000F002FD70BD70B50446656A284600F034
:10041000EFFC70BD38B50446002500200090206830
:10042000806800F0010078BB2068806840F001001F
:1004300021688860194800681949B0FBF1F0009004
:1004400002E00098401E009000980028F9D101F0C9
:1004500015FA054619E001F011FA401B022814D9DB
:100460002068806800F0010078B9A06A40F01000B0
:10047000A062E06A40F00100E06200BF002084F862
:10048000240000BF012038BD05E02068806800F02E
:1004900001000028DFD00020F5E700003400002034
:1004A00040420F0000B585B00020019002900390FB
:1004B000049000BF1248806940F00800104988612C
:1004C0000846806900F00800009000BF00BF4FF4AC
:1004D00040700190112002900020039003200490AE
:1004E00001A9084801F034F801221102054801F081
:1004F000BFF901225102034801F0BAF905B000BD6D
:1005000000100240000C014070B506460C4615462E
:1005100008E03046721C96B200F007F804F8010BB0
:10052000681E85B2002DF4D170BD70B5044600255B
:1005300002F036FDA02002F0FDFC02F071FD201259
:1005400002F0F8FC02F06CFDE0B202F0F3FC02F005
:1005500067FD02F025FDA12002F0ECFC02F060FD39
:10056000002002F0B9FC054602F03AFD284670BDB5
:1005700070B505460C46164606E02178284600F080
:1005800009F8681C85B2641C301EA6F101018EB208
:10059000F3D170BD70B504460D4602F001FDA020F8
:1005A00002F0C8FC02F03CFD201202F0C3FC02F095
:1005B00037FDE0B202F0BEFC02F032FD284602F048
:1005C000B9FC02F02DFD02F00BFD0A2003F0C6FD80
:1005D00070BD000070B53748006800F001000028C9
:1005E00048D035480078002862D000203249087091
:1005F0003248806800F40040002837D03048007846
:100600003C2811DD00202E4908704FF400502B4982
:100610004861052003F0A2FD00F068FA294908604E
:100620004FF40050254908612749087800EBD07144
:100630004910A0EB410181B124492248006804F02F
:10064000ABFA0646224904F09DFB054604F066FB22
:10065000C4B2204600F040F802E0002000F03CF870
:1006600019480078401C1849087021E0642000F007
:1006700033F81DE0012017490870114800783C2824
:1006800016DD00200E49087000F030FA0D490860B0
:100690000E490C48006804F07FFA06460C4904F045
:1006A00071FB054604F03AFBC4B2204600F014F892
:1006B00070BD000008080140060000200010014045
:1006C0001F000020200000202500002066668640D4
:1006D0000000C8422400002038B5044600200090E5
:1006E000192C08DA8DF800008DF801008DF8020051
:1006F0008DF803002FE0322C0ADA01208DF800007B
:1007000000208DF801008DF802008DF8030022E032
:100710004B2C0ADA01208DF800008DF80100002032
:100720008DF802008DF8030015E0622C0ADA012032
:100730008DF800008DF801008DF8020000208DF882
:10074000030008E001208DF800008DF801008DF80D
:1007500002008DF8030004226946462002F043FDA2
:100760000021252002F028FD38BD00001CB5002026
:10077000009001901048114908604720486000210E
:100780000E4881604FF47A71C1600021016181617E
:1007900001F016FE08B100F0A5F9002000900190CC
:1007A0006946064801F0CAFD08B100F09BF903480C
:1007B00001F05CFE1CBD0000000800405C0400204D
:1007C00000BFFEE74D48006800F0200018B94C4813
:1007D0000078012803D103204A4908700BE04A48F9
:1007E000006800F4806018B101204649087002E0FA
:1007F0000020444908704148006800F0400018B9E2
:100800003F484078012803D103203E4948700BE05F
:100810003D48006800F4805018B101203949487003
:1008200002E00020374948703448006800F080003A
:1008300018B933488078012803D1032031498870E2
:100840000BE03148006800F4005018B101202D4938
:10085000887002E000202B4988702B48001D00683A
:1008600000F0010018B92648C078012803D1032000
:100870002449C8700BE02448006800F4804018B197
:1008800001202049C87002E000201E49C8701E489F
:10089000001D006800F0020018B91948007901280D
:1008A00003D10320174908710BE01748006800F4D2
:1008B000004018B101201349087102E000201149DD
:1008C00008711148001D006800F4006018B90C4858
:1008D0004079012803D103200A4948710CE00748F8
:1008E000001F006800F4807018B1012005494871AC
:1008F00002E0002003494871704700000C080140E5
:100900000C00002012000020080C014010B50B78EC
:1009100003B910BD424B1B68C31A322B00D2F8E753
:100920003F4B18603F4B1B78072B75D2DFE803F075
:10093000041322313F4E5E003A4B1B785B1C394C4E
:100940002370137833B12023374C23600123374CB5
:10095000237062E000BF334B1B785B1C314C23706B
:10096000537833B14023304C236001232F4C637004
:1009700053E000BF2B4B1B785B1C2A4C23709378F1
:1009800033B18023284C23600123284CA37044E01A
:1009900000BF244B1B785B1C224C2370D3782BB1F7
:1009A0000123234C2360214CE37036E000BF1D4B34
:1009B0001B785B1C1B4C2370137933B102231C4C36
:1009C00023600123194C237127E000BF154B1B78CE
:1009D0005B1C144C237053793BB14FF40063144CEF
:1009E00023600123114C637117E000BF20230E4CDC
:1009F000241D2360402323608023236001230C4CAB
:100A0000241D2360022323609B02236000230B70BC
:100A1000044C237001E0FFE700BF00BF00BF78E790
:100A2000580000205C000020100801400C0000204D
:100A3000100C014010B5024800F026FC10BD00006B
:100A40001804002010B5024800F01EFC10BD000084
:100A50000001002010B5024800F016FC10BD000097
:100A60004401002008B500BF0E48406940F0010075
:100A70000C4948610846406900F00100009000BF41
:100A800000BF002211460F2000F07EFF0F2000F073
:100A90006BFF00221146102000F076FF102000F0BE
:100AA00063FF08BD0010024030B590F840500124AB
:100AB000AC40C56B6C60046863604468102C04D162
:100AC0000468A2600468E16003E00468A16004684F
:100AD000E26030BD7047002001E0411CC8B23228FE
:100AE000FBDB704772B600BFFEE700002DE9FF5F39
:100AF0001248006804F032F91149019004F042F9FB
:100B00008346104904F048F8824604F019F8064676
:100B100000220D4B03F02CFE00220C4BCDE902010C
:100B200003F0CEFC04464FF08042094B03F020FC5A
:100B3000804603F0EBFB04B0BDE8F09F44000020CA
:100B40003333534000F07F450000F83F0000E03FA2
:100B5000E17A943F30B502460020002304E012F809
:100B6000014B60405C1CA3B28B42F8DB30BD00003F
:100B7000F8B5044600260020009000BF94F8240039
:100B8000012801D10220F8BD012084F8240000BF13
:100B90002046FFF7D2FB06462046FFF73BFC064601
:100BA000002E69D1A06A20F4885040F00200A062B3
:100BB000022000F03BFF34490968B1FBF0F040002F
:100BC000009002E00098401E009000980028F9D1A3
:100BD0002068806840F008002168886000F04EFEC0
:100BE000054616E000F04AFE401B0A2811D920688D
:100BF000806800F0080060B1A06A20F0020040F0B8
:100C00001000A06200BF002084F8240000BF012073
:100C1000B9E72068806800F008000028E2D1206869
:100C2000806840F004002168886000F027FE0546D7
:100C300016E000F023FE401B0A2811D920688068C6
:100C400000F0040060B1A06A20F0020040F0100043
:100C5000A06200BF002084F8240000BF012092E7BA
:100C60002068806800F004000028E2D1A06A20F02B
:100C7000020040F00100A06200BF002084F82400C0
:100C800000BF30467FE700003400002038B5024640
:100C900000230020009000BF92F82400012801D119
:100CA000022038BD012082F8240000BF48680728D0
:100CB00012D21068406B0C79641E04EB84051F246B
:100CC000AC40A0430D796D1E05EB85050C68AC406A
:100CD00020431468606327E048680D2812D210682A
:100CE000006B0C79E41F04EB84051F24AC40A04387
:100CF0000D79ED1F05EB85050C68AC4020431468A9
:100D0000206311E01068C06A0C790D3C04EB840587
:100D10001F24AC40A0430D790D3D05EB85050C6803
:100D2000AC4020431468E06208680A2812D31068B7
:100D3000C0680C780A3C04EB44050724AC40A0438F
:100D40000D780A3D05EB45058C68AC4020431468DE
:100D5000E0600FE0106800690C7804EB440507249C
:100D6000AC40A0430D7805EB45058C68AC402043B2
:100D7000146820610868102802D00868112827D15B
:100D8000174C1068A0421ED11068806800F4000063
:100D9000F0B91068806840F400001468A06008682A
:100DA000102815D10F4800680F4CB0FBF4F000EB91
:100DB00080004000009002E00098401E00900098E3
:100DC0000028F9D104E0906A40F0200090620123ED
:100DD00000BF002082F8240000BF184661E7000031
:100DE000002401403400002040420F007047000002
:100DF00010B5044601220249024800F001F910BD75
:100E000044000020E8030020704700002DE9F04175
:100E10000446002700250026A84614B90120BDE895
:100E2000F081A06810B1207D00B100BFA06A30B988
:100E30000020E06284F82400204600F089F8204673
:100E4000FFF77BFA0746A06A00F01000002873D174
:100E5000002F71D1A06A20F4885040F00200A062F7
:100E6000E16960680843217B40EA41000643A068CD
:100E7000B0F5807F02D0A068012802D14FF48070C5
:100E800000E000200543207D012811D1207B38B9E6
:100E9000A069401E4FF4006141EA4030054307E07D
:100EA000A06A40F02000A062E06A40F00100E06229
:100EB0002068406820F46940284321684860206821
:100EC000806821490840304321688860A068B0F5F7
:100ED000807F02D0A068012802D14FF4807000E02A
:100EE0000020B0F5807F03D1208A401E4FEA0058D1
:100EF0002068C06A20F4700040EA08002168C862D7
:100F00002068806811490840B04208D10020E062A2
:100F1000A06A20F0020040F00100A06211E0A06A87
:100F200020F0020040F01000A062E06A40F00100F2
:100F3000E062012705E0FFE7A06A40F01000A06230
:100F4000012738466BE70000FDF7E1FFFE0E1FFFAB
:100F500010B586B0044600200290039004900590DE
:100F60002249206888423ED100BF2148806940F470
:100F700000701F4988610846806900F40070019084
:100F800000BF00BF00BF0846806940F004008861D0
:100F90000846806900F00400019000BF00BF0220F5
:100FA00002900320039002A9124800F0D1FA1248DF
:100FB00012490860002048600021104881608021AB
:100FC000C160490001618900416120218161C9013D
:100FD000C16100F027FA08B1FFF784FD00BF0748A0
:100FE0002062446200BF06B010BD00000024014032
:100FF00000100240000801400800024018040020D0
:101000002DE9F04104460D46164600275749206851
:10101000884203D056492068884205D15348001DB4
:10102000006800F4702000E0002000287ED100BF9E
:1010300094F82400012802D10220BDE8F0810120AB
:1010400084F8240000BF2046FFF7E4F90746002F8C
:101050006DD1A06A40F60161884340F48070A062BF
:1010600043492068884209D14048001D006800F4C7
:10107000702008B9012002E0002000E0012078B1D2
:10108000A06A20F48010A0622068406800F48060AC
:1010900000B3A06A20F4005040F48050A06219E030
:1010A000A06A40F48010A06230492068884203D0D2
:1010B0002F492068884205D12C48001D006800F4A3
:1010C000806000E0002028B1A06A20F4005040F4C5
:1010D0008050A062A06A00F4805020B1E06A20F045
:1010E0000600E06201E00020E06200BF002084F81A
:1010F000240000BF1F48216A88621F48216AC86215
:101100001E48216A08636FF00200216808602068A9
:10111000806840F4807021688860226802F14C0188
:1011200033462A46206A00F0B1F901E01AE014E0E3
:101130002068806800F46020B0F5602F06D1206838
:10114000806840F4A000216888600CE02068806816
:1011500040F480102168886005E000BF002084F81A
:10116000240000E00127384667E700000024014022
:10117000002801409703000807040008E90300085D
:101180000146002291F82100022808D0042088633B
:1011900000BF002081F8200000BF012070470868D0
:1011A000006820F00E000B6818600868006820F0E6
:1011B00001000B68186091F8403001209840CB6B1B
:1011C0005860012081F8210000BF002081F8200034
:1011D00000BF1046E2E7000070B50446002594F811
:1011E0002100022803D00420A063012548E02068E4
:1011F000006820F00E00216808602068006820F078
:101200000100216808601F492068884201D101203F
:1012100026E01C4914312068884201D110201FE0CB
:10122000184928312068884201D1801518E01549F5
:101230003C312068884201D1801411E011495031BD
:101240002068884202D14FF4803009E00D496431B2
:101250002068884202D14FF4801001E04FF0807086
:10126000084908394860012084F8210000BF0020A7
:1012700084F8200000BF606B10B12046616B884786
:10128000284670BD0800024070B50446E06B056852
:101290002068066894F84010042088402840002800
:1012A00046D006F00400002842D02068006800F014
:1012B000200028B92068006820F004002168086038
:1012C00057492068884201D1042027E0544914314D
:1012D0002068884201D1402020E05149283120680F
:1012E000884201D1001519E04D493C3120688842FF
:1012F00002D14FF4804011E04949503120688842C2
:1013000002D14FF4802009E04549643120688842C9
:1013100002D14FF4800001E04FF08060404908396D
:101320004860E06A00287AD02046E16A884776E083
:1013300094F84010022088402840A0B306F0020034
:1013400088B32068006800F0200040B92068006879
:1013500020F00A0021680860012084F8210030494B
:101360002068884201D1022028E02D4914312068EC
:10137000884201D1202021E0294928312068884273
:1013800001D140151AE026493C312068884202D13B
:101390004FF4005012E0224950312068884203D1B6
:1013A0004FF400300AE017E01D496431206888429C
:1013B00002D14FF4001001E04FF0007018490839D5
:1013C000486000BF002084F8200000BFA06A30B34E
:1013D0002046A16A884722E094F8401008208840FF
:1013E0002840E0B106F00800C8B12068006820F08D
:1013F0000E002168086094F8401001208840E16BDD
:1014000048600120A06384F8210000BF002084F818
:10141000200000BF206B10B12046216B884770BDB3
:10142000080002400146002209B901207047164B0E
:101430000868C01A1423B0FBF3F080000864124857
:101440000838C863022081F821000868026843F662
:10145000F0708243D1E901031843CB6818430B694C
:1014600018434B6918438B691843CB6918430243EF
:101470000868026000208863012081F821000020B4
:1014800081F8200000BFD1E7080002402DE9F041BB
:1014900004460D4616461F464FF0000800BF94F85C
:1014A0002000012802D10220BDE8F081012084F84B
:1014B000200000BF94F8210001282CD1022084F8DC
:1014C00021000020A0632068006820F0010021684E
:1014D00008603B46324629462046FFF7E5FAE06AB7
:1014E00030B12068006840F00E00216808600BE011
:1014F0002068006820F00400216808602068006807
:1015000040F00A00216808602068006840F001008F
:101510002168086006E000BF002084F8200000BFBA
:101520004FF002084046BFE770B5044600F0A6F948
:1015300006462546681C10B104480078054400BFE3
:1015400000F09CF9801BA842FAD370BD3000002047
:101550002DE9F8470346002294466EE14FF001085A
:1015600008FA02F4D1F8008008EA0400A0427DD114
:10157000DFF8DCA2D1F80480A8EB0A09D0453AD004
:1015800014DCB8F1030F50D009DCB8F1000F31D0F2
:10159000B8F1010F1CD0B8F1020F49D120E0B8F129
:1015A000110F18D0B8F1120F42D11EE0B9F5881F03
:1015B00025D006DCB9F5803F20D0B9F5801F37D1A2
:1015C0001AE0B9F5001F18D0B9F5041F30D117E0A3
:1015D000D1F80CC02DE0D1F80C8008F1040C28E003
:1015E000D1F80C8008F1080C23E0D1F80C8008F148
:1015F0000C0C1EE000BF00BF00BF00BF00BF00BF5B
:10160000D1F80880B8F1000F02D14FF0040C0BE0C4
:10161000D1F80880B8F1010F03D14FF0080C1C611C
:1016200002E04FF0080C5C6103E04FF0000C00E0BA
:1016300000BF00BFFF2801D8984601E003F104086D
:101640004646FF2802D84FEA820803E0A2F10808C4
:101650004FEA88084746D6F800804FF00F0909FA8C
:1016600007F928EA09080CFA07F900E088E048EAD7
:101670000908C6F80080D1F8048008F08058B8F155
:10168000805F7DD100BFDFF8CC81D8F8188048F0AA
:101690000108DFF8C091C9F81880C846D8F818804A
:1016A00008F00108CDF8008000BF00BF4FEAB9384C
:1016B0004FEA920958F829504FEA82784FEA187990
:1016C0004FF00F0808FA09F825EA0805DFF88881C5
:1016D000434502D14FF0000816E0DFF88081434512
:1016E00002D14FF001080FE0DFF87481434502D1C9
:1016F0004FF0020808E0DFF86C81434502D14FF05B
:10170000030801E04FF004084FEA82794FEA1979A3
:1017100008FA09F848EA0505DFF84C814FEA920912
:1017200048F82950D1F8048008F48018B8F5801FD3
:101730000AD1DFF83881D8F8008048EA0008DFF8DD
:101740002C91C9F8008009E0DFF82081D8F80080EA
:1017500028EA0008DFF81491C9F80080D1F8048065
:1017600008F40018B8F5001F10D1DFF8008108F167
:101770000408D8F8008048EA0008DFF8F09000E09C
:101780005AE009F10409C9F800800DE0DFF8DC80B7
:1017900008F10408D8F8008028EA0008DFF8CC90A7
:1017A00009F10409C9F80080D1F8048008F4003870
:1017B000B8F5003F0ED1DFF8B480A8F10408D8F8DE
:1017C000008048EA0008DFF8A490A9F10409C9F8EC
:1017D00000800DE0DFF89480A8F10408D8F80080BC
:1017E00028EA0008DFF88490A9F10409C9F800800C
:1017F000D1F8048008F48038B8F5803F0ED1DFF8C6
:101800006C80A8F10808D8F8008048EA0008DFF8E2
:101810005C90A9F10809C9F800800DE0DFF84C8060
:10182000A8F10808D8F8008028EA0008DFF83C9002
:10183000A9F10809C9F80080521CD1F8008028FAE3
:1018400002F8B8F1000F7FF489AEBDE8F887000018
:10185000000011100010024000080140000C01407F
:10186000001001400014014008000140080401403C
:101870000AB1016101E00B0403617047014800688F
:1018800070470000280000200348006803490978D9
:1018900008440149086070472800002030000020FB
:1018A00010B50848006840F01000064908600320A1
:1018B00000F0A8F80F2000F007F800F02BF8002047
:1018C00010BD00000020024070B504460E480078AC
:1018D0004FF47A71B1FBF0F00C490968B1FBF0F5F7
:1018E000284600F00FFD08B1012070BD102C07D272
:1018F00000222146501E00F047F80548046001E030
:101900000120F2E70020F0E7300000203400002042
:101910002C00002008B500BF1148806940F001008C
:101920000F4988610846806900F00100009000BFFF
:1019300000BF00BF0846C06940F08050C86108463B
:10194000C06900F08050009000BF00BF00BF054993
:10195000486820F0E06040F00070486000BF08BDBB
:10196000001002400000014001460846002809DB43
:1019700000F01F0301229A4043099B0003F1E0237A
:10198000C3F8002100BF70472DE9F05F80460D4687
:101990001646002702F014FA074639462A4633460F
:1019A00001F00700C0F1070ABAF1040F02D94FF0A5
:1019B000040A01E0C0F1070AD14600F1040ABAF1B5
:1019C000070F02D24FF0000A01E0A0F1030AD4464B
:1019D0004FF0010A0AFA09FAAAF1010A0AEA020A10
:1019E0000AFA0CFA4FF0010B0BFA0CFBABF1010BEE
:1019F0000BEA030B4AEA0B042146404602F0E8F9E1
:101A0000BDE8F09F00BF00F00702064B19684FF6D3
:101A1000FF031940044B0B4343EA0221014B1960B9
:101A200000BF70470CED00E00000FA052DE9F0471B
:101A300006464FF00008002500270024A146012E8D
:101A400031D0022E56D0102E5FD132484468006843
:101A500000F0807008B33048C4F38341475C04F45D
:101A6000803078B12B484068C0F340402B4911F8D2
:101A7000008004F4803040B12948B0FBF8F000FB4E
:101A800007F502E0274807FB00F52248406800F40C
:101A90008000B0F5800F01D1A94603E06800032162
:101AA000B0FBF1F932E01B48046A04F44070B0F571
:101AB000807F05D104F0020010B14FF4004918E016
:101AC00004F44070B0F5007F07D11248406A00F07E
:101AD000020010B149F640490BE004F44070B0F543
:101AE000407F06D10B48006800F4003008B14FF287
:101AF00024490BE000F08CF906494968C1F38131B3
:101B0000491C4900B0FBF1F900E000BF00BF4846A6
:101B1000BDE8F087001002402E4F00083E4F00083D
:101B200000127A0000093D00F8B5044600260025A1
:101B3000207800F0010000286BD000274348C069DE
:101B400000F0805070B900BF4048C06940F080503C
:101B50003E49C8610846C06900F08050009000BF4F
:101B600000BF01273A48006800F48070B0B93848D7
:101B7000006840F4807036490860FFF77FFE064633
:101B800006E0FFF77BFE801B642801D90320F8BD27
:101B90002F48006800F480700028F2D02B48006ABB
:101BA00000F440752DB3A08800F44070A84220D006
:101BB0002648006A20F4407501202649086000206C
:101BC00008602248056205F0010090B1FFF756FE5B
:101BD000064608E0FFF752FE801B41F2883188423A
:101BE00001D90320D3E71948006A00F00200002859
:101BF000F0D01648006A20F4407061680843134929
:101C00000862012F04D10846C06920F08050C861E5
:101C100000BF207800F00200022807D10B4840687E
:101C200020F44040A168084308494860207800F04B
:101C30001000102807D10548406820F48000E168B2
:101C40000843024948600020A1E70000001002405C
:101C5000007000404004424270B504460D460CB985
:101C6000012070BD5A48006800F00700A8420ED25B
:101C70005748006820F00700284355490860084687
:101C8000006800F00700A84201D00120E9E72078B1
:101C900000F0020002281DD1207800F00400042882
:101CA00005D14C48406840F4E0604A4948602078DB
:101CB00000F00800082805D14648406840F460500C
:101CC000444948604348406820F0F000A168084358
:101CD00040494860207800F0010078B3606801282E
:101CE00006D13C48006800F4003090B90120B8E704
:101CF0006068022806D13748006800F0007040B9DB
:101D00000120AEE73348006800F0020008B9012066
:101D1000A7E73048406820F00300616808432D4978
:101D20004860FFF7ABFD064609E0FFF7A7FD801B03
:101D300041F28831884202D9032092E707E0254822
:101D4000406800F00C006168B0EB810FEDD12048D5
:101D5000006800F00700A8420ED91D48006820F076
:101D6000070028431A4908600846006800F0070089
:101D7000A84201D0012074E7207800F00400042874
:101D800007D11448406820F4E060E1680843114935
:101D90004860207800F00800082808D10D48406805
:101DA00020F46050216940EAC1000A49486000F00F
:101DB0003FF808494968C1F30311074A515CC8401C
:101DC0000649086006480068FFF77EFD002048E7E6
:101DD0000020024000100240404F00083400002064
:101DE0002C000020014800687047000034000020EB
:101DF00000B5FFF7F7FF04494968C1F30221034A20
:101E0000515CC84000BD000000100240504F000867
:101E100000B5FFF7E7FF04494968C1F3C221034A4F
:101E2000515CC84000BD000000100240504F000847
:101E300070B500210022002400230020134D6968A2
:101E400001F00C05F5B1042D02D0082D19D101E0E7
:101E50000F4819E00F4DC1F38346AB5D01F48035A7
:101E600055B10A4D6D68C5F340450B4E725D084D86
:101E70005D43B5FBF2F402E0084D03FB05F4204698
:101E800002E000BF024800BF00BF70BD001002406A
:101E900000127A001C4F00082C4F000800093D007A
:101EA000F8B504460CB90120F8BD207800F0010017
:101EB000002878D0F848406800F00C0004280CD0C6
:101EC000F548406800F00C00082811D1F24840683D
:101ED00000F48030B0F5803F0AD1EF48006800F48C
:101EE000003000285FD0606800285CD10120DBE76B
:101EF00000BF6068B0F5803F06D1E748006840F455
:101F00008030E549086028E0606858B9E248006818
:101F100020F48030E04908600846006820F4802002
:101F200008601AE06068B0F5A02F0BD1DA480068AD
:101F300040F48020D84908600846006840F48030AA
:101F400008600AE0D448006820F48030D249086074
:101F50000846006820F48020086000BF606888B1EF
:101F6000FFF78CFC054606E0FFF788FC401B642861
:101F700001D9032098E7C848006800F40030002821
:101F8000F2D010E0FFF77AFC054606E0FFF776FC9A
:101F9000401B642801D9032086E7BF48006800F48D
:101FA00000300028F2D1207800F00200022857D13A
:101FB000B948406800F00C0050B1B748406800F0E4
:101FC0000C00082818D1B448406800F4803098B953
:101FD000B148006800F0020020B12069012801D05A
:101FE000012061E7AC48006820F0F800616940EA30
:101FF000C100A949086033E02069E8B10120A74980
:102000000860FFF73BFC054606E0FFF737FC401B86
:10201000022801D9032047E79F48006800F002002A
:102020000028F2D09C48006820F0F800616940EA7E
:10203000C1009949086013E0002098490860FFF743
:102040001DFC054606E0FFF719FC401B022801D9DC
:10205000032029E79048006800F002000028F2D130
:10206000207800F0080008282DD1A069B8B101201F
:102070008B490860FFF702FC054606E0FFF7FEFB10
:10208000401B022801D903200EE78348406A00F074
:1020900002000028F2D0012001F096F913E00020A0
:1020A0007F490860FFF7EAFB054606E0FFF7E6FB1D
:1020B000401B022801D90320F6E67748406A00F069
:1020C00002000028F2D1207800F00400042873D127
:1020D00000277148C06900F0805070B900BF6E4899
:1020E000C06940F080506C49C8610846C06900F082
:1020F0008050009000BF00BF01276A48006800F4CC
:102100008070B0B96748006840F480706549086025
:10211000FFF7B4FB054606E0FFF7B0FB401B642861
:1021200001D90320C0E65F48006800F480700028F1
:10213000F2D000BFE068012806D15748006A40F09D
:1021400001005549086227E0E06858B95248006A22
:1021500020F00100504908620846006A20F004009F
:10216000086219E0E06805280BD14B48006A40F08E
:102170000400494908620846006A40F0010008620C
:102180000AE04548006A20F0010043490862084619
:10219000006A20F00400086200BFE068A0B1FFF709
:1021A0006DFB054609E0FFF769FB401B41F28831F2
:1021B000884202D9032077E622E03748006A00F01F
:1021C00002000028EFD012E0FFF758FB054608E0B8
:1021D000FFF754FB401B41F28831884201D90320AC
:1021E00062E62D48006A00F002000028F0D1012FBD
:1021F00005D12948C06920F080502749C86100BF37
:10220000E069C8B32448406800F00C00082860D09A
:10221000E069022848D1002020490866FFF72EFB1C
:10222000054606E0FFF72AFB401B022801D90320E0
:102230003AE61948006800F000700028F2D1206AE0
:10224000B0F5803F07D11448406820F40030A16801
:10225000084311494860D4E9080108430E49496818
:1022600021F4741108430C49486001200B490866A9
:10227000FFF704FB054607E03DE0FFF7FFFA401BD0
:10228000022801D903200FE60348006800F000701F
:102290000028F2D02FE0000000100240000042426F
:1022A0008004424200700040002014490866FFF795
:1022B000E5FA054606E0FFF7E1FA401B022801D9DE
:1022C0000320F1E50E48006800F000700028F2D10C
:1022D00011E0E069012800D1E6E50948466806F406
:1022E0008031206A814204D106F47011606A814213
:1022F00001D00120D8E50020D6E5000000004242D0
:102300000010024070B504462546681EB0F1807F7B
:1023100001D301200FE0681E4FF0E02148610F213A
:102320004FF0FF3001F054FD00204FF0E0218861B4
:1023300007200861002070BD7047704730B5024625
:102340000B4600BF92F83C00012801D1022030BDAD
:10235000012082F83C0000BF022082F83D00106896
:1023600044681068816824F0700418680443106899
:102370004460104D1068A8420BD01068B0F1804F37
:1023800007D00D4D1068A84203D00C4D1068A8422C
:1023900005D121F080015868014310688160012057
:1023A00082F83D0000BF002082F83C0000BF00BF63
:1023B000CDE70000002C0140000400400008004070
:1023C00010B504460CB9012010BD94F83D0028B9A1
:1023D000002084F83C00204600F026F8022084F813
:1023E0003D00211D206801F055F8012084F84600C9
:1023F00000BF84F83E0001213F20015540200155D7
:102400004120015500BF00BF012084F84200432055
:102410000155442001554520015500BF012084F895
:102420003D000020D0E7000038B504460D49206883
:10243000884215D100BF0C48C06940F004000A4929
:10244000C8610846C06900F00400009000BF00BFEA
:10245000002211461E20FFF797FA1E20FFF784FA8C
:1024600038BD00000008004000100240014691F80D
:102470003D00012801D001207047022081F83D0075
:102480000868C06840F001000B68D860124B08680B
:1024900098420BD00868B0F1804F07D00F4B086806
:1024A000984203D00E4B086898420CD108688068A7
:1024B00000F00702062A0CD00868006840F001000E
:1024C0000B68186005E00868006840F001000B68C0
:1024D00018600020D0E70000002C014000040040FC
:1024E00000080040704770B504462068C568206841
:1024F000066906F00200022819D105F00200022840
:1025000015D1401F2168086101202077206880696B
:1025100000F0030018B12046FFF7E4FF05E0204675
:1025200000F097F8204600F095F80020207706F09C
:102530000400042819D105F00400042815D1C04373
:1025400021680861022020772068806900F44070CB
:1025500018B12046FFF7C6FF05E0204600F079F8E5
:10256000204600F077F80020207706F008000828C1
:1025700019D105F00800082815D1C0432168086169
:10258000042020772068C06900F0030018B12046BD
:10259000FFF7A8FF05E0204600F05BF8204600F0BA
:1025A00059F80020207706F01000102819D105F006
:1025B0001000102815D1C043216808610820207739
:1025C0002068C06900F4407018B12046FFF78AFF08
:1025D00005E0204600F03DF8204600F03BF80020E2
:1025E000207706F0010048B105F0010030B16FF02E
:1025F000010021680861204600F02EF806F08000F6
:10260000802809D105F08000802805D1C0432168C9
:1026100008612046FFF790FE06F04000402809D1EF
:1026200005F04000402805D1C043216808612046DC
:1026300000F03EF806F02000202809D105F0200027
:10264000202805D1C043216808612046FFF775FEA8
:1026500070BD704770470000114988421ED1114972
:102660000968491C0F4A1160114609684FF4FA7253
:10267000B1FBF2F302FB131111B901210A4A1170E7
:10268000084909684FF47A72B1FBF2F302FB1311A7
:1026900021B906490968491C044A116070470000C5
:1026A0005C04002048000020060000204C000020B0
:1026B0007047704770B50446002520684069C0F334
:1026C000C01594F84100212817D1B5B100BF00BF53
:1026D0002168143151E8001F21F080002168143175
:1026E00041E80002002AF3D100BFA06B10B1A06B3B
:1026F000FEF746FD204601F0A3F820684069C0F3CC
:10270000801594F84200222817D1B5B100BF00BF50
:102710002168143151E8001F21F040002168143174
:1027200041E80002002AF3D100BFE06B10B1E06B7A
:10273000FEF726FD204601F03DF8002070BD7047F1
:102740002DE9F84F0446206805682068C6682068AF
:1027500047694FF00009CA4605F00F09B9F1000FAB
:102760000AD105F0200038B106F0200020B1204643
:1027700001F079F8BDE8F88FB9F1000F7BD007F0D0
:10278000010018B906F49070002874D005F001001B
:1027900030B106F4807018B1606C40F001006064E4
:1027A00005F0040030B107F0010018B1606C40F092
:1027B0000200606405F0020030B107F0010018B1BA
:1027C000606C40F00400606405F0080048B106F059
:1027D000200010B907F0010018B1606C40F008004B
:1027E0006064606C002845D005F0200028B106F038
:1027F000200010B1204601F036F820684069C0F38F
:10280000801A606C00F0080010B9BAF1000F2CD0EB
:10281000204600F0CFFF2068406900F0400000B380
:1028200000BF00BF2168143151E8001F21F04000B3
:102830002168143141E80002002AF3D100BFE06BA7
:1028400050B17748E16B4863E06BFEF7C5FC88B197
:10285000E06B416B88470DE02046FFF770FF09E011
:1028600009E02046FFF76BFF04E02046FFF767FF13
:10287000002060647EE7206B012877D105F010000E
:10288000002873D006F010000028FAD000BF002006
:10289000009020680068009020684068009000BFA9
:1028A00000BF2068406900F0400000285FD0E06B66
:1028B000006840681FFA80F8B8F1000F55D0A08D6D
:1028C000404552DDA4F82E80E06B8069202843D07B
:1028D00000BF00BF21680C3151E8001F21F4807057
:1028E00021680C3141E80002002AF3D100BF00BF8B
:1028F00000BF2168143151E8001F21F00100216858
:10290000143141E80002002AF3D100BF00BF00BF2C
:102910002168143151E8001F21F040002168143172
:1029200041E80002002AF3D100BF202084F84200D1
:102930000020206300BF00BF21680C3151E8001F58
:1029400021F0100021680C3141E80002002AF3D187
:1029500000BFE06BFEF714FC02206063A08DE28DE7
:10296000801A81B22046FFF7A4FE03E742E0A08D63
:10297000E18D401A1FFA80F8E08DD0B3B8F1000F56
:1029800037D000BF00BF21680C3151E8001F21F48F
:10299000907021680C3141E80002002AF3D100BF99
:1029A00000BF00BF2168143151E8001F21F0010071
:1029B0002168143141E80002002AF3D100BF202031
:1029C00084F842000020206300BF00BF21680C3162
:1029D00051E8001F21F0100021680C3141E800028D
:1029E000002AF3D100BF0220606341462046FFF772
:1029F00060FEBFE605F0800030B106F0800018B13F
:102A0000204601F091F8B5E605F0400030B106F03F
:102A1000400018B1204600F003FFABE600BFA9E676
:102A20007936000810B504460CB9012010BDA06924
:102A300000B100E000BF94F8410028B9002084F8FC
:102A40004000204600F02AF8242084F84100206845
:102A5000C06820F400502168C860204600F082FF62
:102A60002068006920F4904021680861206840696E
:102A700020F02A00216848612068C06840F40050B6
:102A80002168C86000206064202084F8410084F838
:102A900042000020606300BFC8E7000010B586B0A8
:102AA0000446002002900390049005905549206848
:102AB000884250D100BF5448806940F48040524958
:102AC00088610846806900F48040019000BF00BF23
:102AD00000BF0846806940F00400886108468069AC
:102AE00000F00400019000BF00BF481502900220D2
:102AF00003900320059002A94448FEF729FD4FF4F6
:102B00008060029000200390049002A93F48FEF7E5
:102B10001FFD3F483F4908600020486000213D48B4
:102B200081608021C1600021016141618161C161D9
:102B3000FEF778FC08B1FDF7D5FF00BF3548E0632C
:102B4000446200BF002211462520FEF71DFF25200C
:102B5000FEF70AFF53E03049206888424FD100BF9A
:102B60002948C06940F400302749C8610846C06957
:102B700000F40030019000BF00BF00BF084680692C
:102B800040F0040088610846806900F0040001906C
:102B900000BF00BF04200290022003900320059094
:102BA00002A91A48FEF7D4FC0820029000200390E6
:102BB000049002A91548FEF7CBFC154814301749BC
:102BC0000860002048600021144881608021C160B5
:102BD0000021016141618161C161FEF723FC08B1FF
:102BE000FDF780FF00BF0D48E063446200BF002294
:102BF00011462620FEF7C8FE2620FEF7B5FE06B0D9
:102C000010BD0000003801400010024000080140E3
:102C10005800024000010020004400404401002010
:102C200070B504460D46164694F8420020280BD194
:102C300005B10EB9012070BD00202063324629463F
:102C4000204600F00DFFF6E70220F4E770477047DA
:102C50002DE9F84F04460E46174699464FF0000AF4
:102C600094F84100202850D106B117B90120BDE8E1
:102C7000F88F00206064212084F84100FEF7FEFDFB
:102C80008246A784E784A068B0F5805F04D12069FC
:102C900010B90025B04602E035464FF000081EE0AE
:102CA0005346002280212046CDF8009000F06CFFB2
:102CB00020B1202084F841000320D8E745B9B8F8B6
:102CC0000000C0F308002168486008F1020803E032
:102CD0002878216848606D1CE08C401EE084E08C00
:102CE0000028DDD15346002240212046CDF8009037
:102CF00000F04AFF20B1202084F841000320B6E70D
:102D0000202084F841000020B1E70220AFE770479F
:102D100000BFFEE700B585B000200190029003904F
:102D2000049000BF1048806940F010000E4988618F
:102D30000846806900F01000009000BF00BFC0206E
:102D4000019011200290002003900320049001A91B
:102D50000648FEF7FDFB4020044910310860802042
:102D6000086005B000BD000000100240000C0140EA
:102D700000B50246002320E002F0800018B1802058
:102D80000F49086003E080200D49091D0860FDF728
:102D9000A2FE40200A490860FDF79DFE4020084938
:102DA000091D0860072B02D18020091F086050060A
:102DB000020EFDF790FE581CC3B2082BDCDB00BDF1
:102DC000100C014000B580200949086040200860CF
:102DD000FDF781FE80200649091D0860FDF77BFE96
:102DE00040200349091D0860FDF775FE00BD000085
:102DF000100C014000B58020064908604020091FE2
:102E00000860FDF768FE80200249091F0860FDF791
:102E100062FE00BD140C014000B580200C49086022
:102E2000FDF759FE40200A490860FDF754FE0848A6
:102E30000838006800F0800008B1012200E000229C
:102E400040200349091D0860FDF745FE104600BDFE
:102E5000100C014010B500224FF480710D48FEF7B0
:102E600007FD00224FF400710A48FEF701FD022021
:102E700001F088F9012211020648FEF7F9FC022050
:102E800001F080F900224FF480710248FEF7F0FC57
:102E900010BD0000000C014010B500224FF48071FD
:102EA0000C48FEF7E5FC012251020A48FEF7E0FC5F
:102EB000022001F067F9012211020648FEF7D8FC52
:102EC000022001F05FF900224FF480710148FEF703
:102ED000CFFC10BD000C014070B505460024002653
:102EE0001CE000224FF480711148FEF7C1FC022063
:102EF00001F048F9012211020D48FEF7B9FC600605
:102F0000040E0B480830006800F4007008B1601C23
:102F1000C4B2012001F036F9701CC6B2082EE0DB05
:102F200015B9FFF7B9FF01E0FFF794FF204670BD28
:102F3000000C014070B5044600224FF48071174820
:102F4000FEF796FC002526E004F0800028B101225F
:102F500051021248FEF78CFC05E000224FF400718C
:102F60000E48FEF785FC6006040E022001F00AF907
:102F7000012211020948FEF77BFC022001F002F950
:102F800000224FF480710548FEF772FC022001F028
:102F9000F9F8681CC5B2082DD6DB70BD000C0140E5
:102FA00010B5012251020D48FEF762FC0122110208
:102FB0000A48FEF75DFC042001F0E4F800224FF41B
:102FC00000710648FEF754FC042001F0DBF80022F3
:102FD0004FF480710148FEF74BFC10BD000C01401E
:102FE00010B500224FF480710C48FEF741FC00221E
:102FF0004FF400710948FEF73BFC042001F0C2F8D1
:10300000012211020548FEF733FC01225102034858
:10301000FEF72EFC042001F0B5F810BD000C0140B5
:1030200010B50024012251021248FEF721FC0120B4
:1030300001F0A8F8012211020E48FEF719FC012048
:1030400001F0A0F807E0601CC4B2FA2C03DDFFF722
:10305000C7FF012010BD07480830006800F4007069
:103060000028F0D100224FF480710248FEF700FCE6
:103070000020EFE7000C014010B5FFF74BFE0121E7
:10308000002000F099F800214B2000F095F80F2265
:1030900024210B48FDF7C4F824220949002000F040
:1030A00013F824210748FDF7C3F82422054900201E
:1030B00000F070F80021252000F07EF810BD00001F
:1030C000A0030020C403002070B504460D46164638
:1030D00024B12978204600F06FF804E032462946F2
:1030E000012000F080F870BD10B586B004461421B0
:1030F00001A8FDF7BFF8062221462448FDF764F831
:10310000002841D020782249085C00F001008DF8A9
:1031100005002078085CC0F340008DF8040020789A
:10312000085CC0F380008DF8060001201CE0215CE3
:10313000174A515C01F0010100EB400201AB9954C8
:10314000215C134A515CC1F3400200EB4001491C71
:103150005A54215C0E4A515CC1F3800200EB4001DD
:10316000891C5A54411CC8B20628E0DB122201A96E
:10317000002000F00FF80021252000F01DF8034882
:1031800021680160A188818006B010BD3D0000204B
:103190003800002070B504460D46164634B1297833
:1031A00004F12502D0B200F007F804E032462946C7
:1031B000262000F018F870BD70B505460C46FFF7E4
:1031C00001FE7820FFF7D4FDFFF726FE2846FFF723
:1031D000CFFDFFF721FE2046FFF7CAFDFFF71CFEDB
:1031E000FFF708FE70BD2DE9F04107460D46164673
:1031F000FFF7E8FD7820FFF7BBFDFFF70DFE38462F
:10320000FFF7B6FDFFF708FE002406E0285DFFF794
:10321000AFFDFFF701FE601CC4B2B442F6DBFFF75E
:10322000E9FDBDE8F081000010B508200A490860FA
:1032300040020A490860401008600021084800F078
:1032400011F8012000F08AFF4FF480500349091D56
:1032500008604010086010BD100C014010080140CB
:103260005000002070B504460D460DB1C02000E0AE
:10327000C220124908702088001248702078887097
:103280002078C870A07800F0070040F0180008719E
:10329000E07848712079402141EAC010617940EA24
:1032A000C100001DA17901F00301084303494871E1
:1032B0000621024800F070FF70BD0000A404002049
:1032C00000BFFEE700BFFEE770470000F0B5044610
:1032D0000E4600270025AA2020700C206070174899
:1032E0000078A07016480078E07046F080002071E9
:1032F000512E02D0522E18D107E012480168C4F8AE
:1033000005108088A4F8090010E000250AE00E48A6
:10331000405D08B1032001E00A48405D691D60542A
:10332000681CC5B2062DF2DB00E000BF00BF0B2118
:103330002046FDF70FFCE0720C20F0BD00000020DD
:1033400001000020120000201800002070B5024685
:103350000024002500231078AA2801D0002070BD89
:103360005678481E864201D00020F8E79078124E29
:103370003678B04201D00020F1E7D0780F4E367891
:10338000B04201D00020EAE79478D5781379512B28
:1033900002D0522B0CD100E00BE00120084E30701F
:1033A0000848D2F805600660B2F80960868000E03F
:1033B00000BF00BF1846D2E7000000200100002037
:1033C0001E0000201800002008B508490968C90837
:1033D0004FF47A72B1FBF2F14143009100BF00BF9C
:1033E00000994A1E00920029F9D108BD340000203E
:1033F000704710B5FEF748FA10BD00B593B028210C
:1034000009A8FCF737FF142104A8FCF733FF0020BC
:1034100000900190029003900120099000040A900E
:1034200000200B9001200D9002201090C1031191FB
:103430004FF4E011129109A8FEF732FD08B1FDF733
:1034400051FB0F20049002200590002006904FF4BD
:103450008060079000200890022104A8FEF7FCFB82
:1034600008B1FDF73FFB022000904FF4404002906E
:103470006846FEF759FB08B1FDF734FB13B000BDF9
:103480007047000010B50248FFF72DF810BD00008E
:103490005C04002010B502681C4B984208D0B0F1C3
:1034A000804F05D01A4B984202D01A4B984203D154
:1034B00022F070024B681A43144B984208D0B0F1C6
:1034C000804F05D0124B984202D0124B984203D144
:1034D00022F44072CB681A4322F080034C6943EA1D
:1034E000040202608B68C3620B688362074B9842D8
:1034F00001D10B69036301234361036903F00103F5
:103500001BB1036923F00103036110BD002C0140CE
:10351000000400400008004010B500F079F800F009
:1035200001F810BD1FB5354B0FCB8DE80F000024FF
:103530003348007A00285ED00020314908720846DE
:1035400000680078482804D10846006840784C2874
:1035500000D01FBD2A4800688078012800D0F8E715
:103560002748C088062800DAF3E725480068C078B5
:10357000012806D002280AD0032813D0042822D11B
:1035800016E0204800788DF8040001241CE01C4857
:10359000006800791B49087001220A20FCF7E8FF47
:1035A000002411E0184800788DF8040001240BE095
:1035B0001348006800791449087001220F20FCF7B5
:1035C000D7FF002400E000BF00BF0D480068C078AE
:1035D0008DF80300A01DC4B20A21601E0DF8001072
:1035E0000D21A01E0DF800104FF47A732246694693
:1035F0000648FFF72DFB00BFABE70000584F00085F
:103600008801002000000020010000207000002040
:103610001FB50024002000900190029003900E48F6
:10362000007AB8B100200C4908720A46D288D1B29B
:10363000094A1068FFF78AFE04465CB121466846D5
:10364000FFF744FE04464FF47A7322466946034866
:10365000FFF7FEFA1FBD000094010020B800002013
:1036600001480068704700004800002001480068D9
:10367000704700004C00002070B505466C6A0020C1
:10368000E085E0842046FFF75AF870BD70B5064625
:103690000025746A20684069C0F3C01594F84100A1
:1036A000212805D125B10020E084204600F0C8F88B
:1036B00020684069C0F3801594F84200222805D1A3
:1036C00025B10020E085204600F074F8606C40F0E1
:1036D000100060642046FFF732F870BD70B50546F3
:1036E0006C6A2868006800F02000002842D1E0855C
:1036F00000BF00BF21680C3151E8001F21F4807029
:1037000021680C3141E80002002AF3D100BF00BF5C
:1037100000BF2168143151E8001F21F00100216829
:10372000143141E80002002AF3D100BF00BF00BFFE
:103730002168143151E8001F21F040002168143144
:1037400041E80002002AF3D100BF202084F84200A3
:10375000206B01280ED100BF00BF21680C3151E859
:10376000001F21F0100021680C3141E80002002AFE
:10377000F3D100BF00206063206B012804D1A18D2C
:103780002046FEF796FF02E02046FFF75FFA70BD85
:1037900070B505466C6A01206063206B012805D175
:1037A000A08D41082046FEF784FF02E02046FFF787
:1037B0004EFA70BD00BF00BF02680C3252E8002F05
:1037C00022F4907102680C3242E80013002BF3D10E
:1037D00000BF00BF00BF0268143252E8002F22F081
:1037E00001010268143242E80013002BF3D100BF3C
:1037F000016B01290ED100BF00BF02680C3252E8F4
:10380000002F22F0100102680C3242E80013002B56
:10381000F3D100BF202180F84210002101637047DE
:1038200010B504462068C06820F040002168C860D8
:10383000202084F841002046FFF769FA002010BDDF
:1038400000BF00BF02680C3252E8002F22F0C00116
:1038500002680C3242E80013002BF3D100BF202194
:1038600080F841107047F8B5044694F842002228C9
:1038700075D1A068B0F5805F0CD1206950B90025E2
:10388000A66A20684068C0F308003080A06A801CE7
:10389000A06215E0A56A0026A068B0F5805F03D09D
:1038A000A06828B9206918B920684068287004E029
:1038B0002068406800F07F002870A06A401CA06269
:1038C000E08D401E80B2E085002846D12068C068A7
:1038D00020F020002168C8602068C06820F4807053
:1038E0002168C8602068406920F0010021684861B3
:1038F000202084F8420000206063206B012826D13C
:103900000020206300BF00BF21680C3151E8001F78
:1039100021F0100021680C3141E80002002AF3D1A7
:1039200000BF2068006800F0100010280AD100BF16
:103930000020009020680068009020684068009097
:1039400000BF00BFA18D2046FEF7B3FE02E0204677
:10395000FFF77CF90020F8BD01E00020FBE7022022
:10396000F9E7000070B504462168096921F4405167
:10397000E2681143226811612269A16811436269FA
:1039800041EA02052168C96841F20C62914329436A
:103990002268D1602168496921F44071A26911430C
:1039A000226851612D4A2168914202D1FEF730FA16
:1039B00001E0FEF71DFA00EBC00101EB00116268A7
:1039C0009200B1FBF2F100EBC00202EB001263685F
:1039D0009B00B2FBF3F26423B2FBF3F202EBC203EF
:1039E00003EB0212A1EB8201322202EB01116422ED
:1039F000B1FBF2F101F0F00100EBC00202EB0012AA
:103A000063689B00B2FBF3F26423B2FBF3F201EBB9
:103A1000021200EBC00101EB001163689B00B1FBD7
:103A2000F3F100EBC00303EB00136668B600B3FBD1
:103A3000F6F36426B3FBF6F303EBC30606EB0313BE
:103A4000A1EB8301322303EB01116423B1FBF3F1FA
:103A500001F00F0111442268916070BD00380140EF
:103A600077B581B0044615460298A062A58500206E
:103A70006064222084F842002848E16B886228486C
:103A8000E16BC8622748E16B08630020E16B486383
:103A900002AE32682368191D2B46E06BFDF7F6FC79
:103AA00000BF0020009020680068009020684068F7
:103AB000009000BF00BF206970B100BF00BF216847
:103AC0000C3151E8001F41F4807021680C3141E84D
:103AD0000002002AF3D100BF00BF00BF21681431EB
:103AE00051E8001F41F001002168143141E8000253
:103AF000002AF3D100BF00BF00BF2168143151E894
:103B0000001F41F040002168143141E80002002A02
:103B1000F3D100BF002004B070BD0000DD36000806
:103B2000913700088D360008014691F841002128A0
:103B300028D18868B0F5805F0BD1086948B90A6A56
:103B40001088C0F308000B685860086A801C08627F
:103B500005E00B6A581C086218780B685860C88C1E
:103B6000401E80B2C88458B90868C06820F0800040
:103B70000B68D8600868C06840F040000B68D860E7
:103B8000002070470220FCE72DE9F84304460D466B
:103B900017469846089E31E0701C70B3FDF76EFE24
:103BA000A0EB0800B04200D816B90320BDE8F883A6
:103BB0002068C06800F00400F8B1802D1ED0402DB0
:103BC0001CD020680068C0F3C000B0B100BF002066
:103BD000009020680068009020684068009000BF56
:103BE00000BF2046FFF7E6FD0820606400BF00200C
:103BF00084F8400000BF0120D8E7FFE72068006894
:103C00002840A84201D1012000E00020B842C3D0E2
:103C10000020CBE708B5154800680068C0F3001025
:103C2000F8B100BF002000901048006800680090C4
:103C30000E4800684068009000BF00BF0B48FEF7C8
:103C400039FD0B4880880B4909684968401A0849C2
:103C5000C880012008720846828801680348FEF780
:103C6000DFFF0248FEF76CFD08BD00007000002079
:103C7000880100200001002008B518481849086094
:103C80004FF4E1304860002115488160C160016156
:103C90000C21416100218161C161FEF7C3FE08B1C1
:103CA000FCF720FF00BF002000900D48006800686E
:103CB00000900B4800684068009000BF00BF0948B2
:103CC000828801680648FEF7ABFF05480068C068B7
:103CD00040F0100002490968C86008BD0038014082
:103CE000700000208801002008B5154800680068B1
:103CF000C0F30010F8B100BF002000901048006829
:103D0000006800900E4800684068009000BF00BF47
:103D10000B48FEF7CFFC0B4880880B4909684968BF
:103D2000401A0849C8800120087208468288016844
:103D30000348FEF775FF0248FEF702FD08BD0000CC
:103D4000B8000020940100204401002008B5184864
:103D5000184908604FF416504860002115488160EA
:103D6000C16001610C21416100218161C161FEF7E7
:103D700059FE08B1FCF7B6FE00BF002000900D48C8
:103D80000068006800900B4800684068009000BF21
:103D900000BF0948828801680648FEF741FF0548D0
:103DA0000068C06840F0100002490968C86008BD9A
:103DB00000440040B80000209401002000BFFEE74E
:103DC00002480068C0F30220704700000CED00E0DC
:103DD00010B5002804DB0A07130E054A135406E049
:103DE0000A07140E034A00F00F031B1FD45410BD22
:103DF00000E400E018ED00E01FB500200190029003
:103E0000039000BF2048406940F001001E4948610E
:103E10000846406900F00100009000BF00BF00228A
:103E200011460B20FDF7B0FD0B20FDF79DFD174857
:103E300017490860002116488160012101730021A3
:103E400001754FF46021C1610020114948600121D2
:103E50000F480161FCF7DAFF08B1FCF743FE0120CF
:103E6000019002900720039001A90948FCF70EFF7A
:103E700008B1FCF737FE0648FCF77AFE0122054937
:103E80000348FDF7BDF81FBD0010024000240140AB
:103E9000E80300204400002000B585B00020019018
:103EA00002900390049000BF7748806940F00400BE
:103EB000754988610846806900F00400009000BFE1
:103EC00000BF00BF0846806940F0080088610846CE
:103ED000806900F00800009000BF00BF00BF0846E6
:103EE000806940F0100088610846806900F0100089
:103EF000009000BF00BF002003900220049001202A
:103F000002904003019001A96048FDF721FB2020A9
:103F1000019001A95E48FDF71BFB2020019001A93B
:103F20005C48FDF715FB4020019001A95948FDF7B9
:103F30000FFB8020019001A95648FDF709FB0120E5
:103F4000019001A95248FDF703FB0220019001A94D
:103F50004F48FDF7FDFA4FF40060019001A94C486D
:103F6000FDF7F6FA4FF48050019001A94948FDF79A
:103F7000EFFA4FF40060019001A94648FDF7E8FA16
:103F80004FF40040019001A94248FDF7E1FA0820F2
:103F9000019001A93E48FDF7DBFA1020019001A92C
:103FA0003B48FDF7D5FA002002900120019001A9BD
:103FB0003848FDF7CDFA4FF40040019001A933488D
:103FC000FDF7C6FA4FF48060019001A93048FDF773
:103FD000BFFA4FF48050019001A92D48FDF7B8FABF
:103FE0004FF40050019001A92948FDF7B1FA4FF4B0
:103FF0008040019001A92648FDF7AAFA4FF400403D
:10400000019001A92248FDF7A3FA4FF480700190B6
:1040100001A92048FDF79CFA4FF48040019001A9C6
:104020001A48FDF795FA10E01A480830006800F0C9
:10403000010050B940F2DC50FDF776FA154808301F
:10404000006800F0010000B900E0EDE700BF4FF4A8
:1040500000500E49086120200D49103108601020E1
:10406000086020200B49143108604020086080203F
:1040700008600120064914310860022008608002AF
:10408000086005B000BD00000010024000100140B3
:10409000000C0140000801403EB5142400200290AD
:1040A0000120019000900CE0012202A91046FCF7CB
:1040B0002BFA9DF80800012800D107E00A2000F043
:1040C0004DF8201EA4F10101CCB2EDD100BF9DF846
:1040D000080001280DD001210846FCF75BFA0122F7
:1040E00001A90A20FCF744FA012269460F20FCF7D7
:1040F0003FFA322000F032F8012205490A20FCF78D
:1041000003FA012203490F20FCF7FEF93EBD00002F
:10411000000000200100002010B50C480C49086088
:104120004FF4807088800020C880087209480A49CE
:1041300008604FF4807088800020C8800872FCF707
:1041400091FCFFF799FDFFF701FE10BDA0010020D3
:1041500088010020A00200209401002070B50446D0
:10416000FDF78CFB06462546681C10B10448007814
:10417000054400BFFDF782FB801BA842FAD370BD47
:104180003000002000EB8002D10000BF00BF0A1EFB
:10419000A1F10101FAD1704770B504460D464FF404
:1041A0007A732A4621460248FEF752FD70BD000090
:1041B000B8000020FDF774FBFFF71FF9FFF76CFE56
:1041C000FCF770F9FFF768FFFEF756FFFFF714FEE4
:1041D000FFF7A2FFFFF728F8FCF7C8FAFCF786FC08
:1041E0003B4908603B493A48006800F0D5FC064668
:1041F000394900F0C7FD054600F090FDC4B22046E5
:10420000FCF76AFA63E0FFF731FA3449096888423B
:1042100008D0FFF72BFA3149086031480078401C7C
:104220002F490870FCF7D6F9FCF7CCFA2D48FEF7B9
:104230005BFFFFF715FA04462B4A2C49FCF766FB97
:10424000FFF76AF92A48007806282FD2DFE800F045
:104250002E030E1A2429274802780F212648FBF73F
:10426000DFFF0F212448FFF797FF20E02148027865
:104270000F212148FBF7D4FF0F221F490A20FCF72A
:1042800077F914E00F211C48FBF7D2FF0F221A49DF
:104290000A20FCF739F90AE04FF400501749086189
:1042A00005E04FF400501549486100E000BF00BF31
:1042B00012488068C0F3C030114908701148006886
:1042C00000F00100104908700020094908709AE7C1
:1042D00020000020666686400000C84208000020DA
:1042E0001F00002012000020180000201E000020E7
:1042F00002000020030000206000002000100140A8
:1043000004000020080801400500002021F00042C0
:10431000A2F16052B2F5801F01F0004328BFD2F134
:104320007F6C0BD95FEA001C43EAC20242EB50707B
:1043300018BF704728BF20F001007047B2F5801FFA
:10434000BCBF184670474FEA410C1CF5001F02D253
:10435000084600F0DEBD70B500F0B4FA0000008938
:10436000FFF7F6BF4FF00040A0F580007047000057
:1043700010B591EA030F48BF83F0004300F1FE82BD
:10438000841A71EB030C05D2121943EB0C03001BCA
:1043900061EB0C01DFF824E14FEA1154A4EB135C4C
:1043A0001EEA430F18BF9EEA445F73D023EA0E0350
:1043B000DCF1200E21EA045143F4801332D322FAB7
:1043C0000CFE10EB0E0023FA0CFE41EB0E01CCF1BB
:1043D000200E03FA0EFE10EB0E0051F10001B1F5B4
:1043E000801FCCF1200E32D201EB045112FA0EF2F2
:1043F000BDE8104058BF7047401C38BF5FEA42021A
:1044000018BF7047002814BF20F0010041F10001DF
:104410004FEA410313F5001F38BF7047A1F1C041B7
:1044200000F09EBA012A43EB0302ACF1200CDCF150
:104430001F0E32BF4FF0000E23FA0CF310EB0300F7
:1044400041EB0451B4EB115FD0D0A1EB045101F565
:10445000801149085FEA300001EB04510ED350F19E
:10446000000038BF12FA0EFE08D1BDE81040C9E7BF
:10447000401C38BF5FEA4202CAD1C3E7BDE8104022
:104480004FEA410313F5001F38BF7047A1F1C04147
:1044900000F066BA9EEA445F08D011EA5E0FBDE8FC
:1044A000104004BF01F0004100207047BDE81040FB
:1044B00070B500F007FA00BF64FBBE3E0000E0FFED
:1044C0002DE9C04130B4DFF8A0C23CEA111418BF96
:1044D0003CEA131400F0EC8081EA03051CEA111495
:1044E00044EAD57418BF1CEA131500F0C780A4EB8A
:1044F00005044FF0004545EAC12145EAC32341EADE
:10450000505143EA525304F17F74994204F5003448
:104510004FEAC0204FEAC22208BF904200F09C80C0
:104520004FEA13650FF24016765D4FEA134506FB1E
:1045300005F7C7F1807706FB07F74FEAD737A7FBE8
:1045400003687642C8F58038A7FB06CE38BFA8F1CD
:10455000010807FB08E64FF0000EA6FB028CE6FB05
:1045600003CEDCF1000CCEF1004E38BFAEF1010EEF
:10457000A6FB0C584FF000074FF00005E6FB0E8736
:10458000A1FB08C6A0FB07CE16EB0E0645F1000501
:10459000E1FB076515F1E04E7EBFA4F580345FEACC
:1045A00046066D4116F1800745F100054FEA1727D1
:1045B0004FEA066647EA0567A6F1DE46B6F1805F78
:1045C0004FEA15251FD9384624F0010C05EBC471BC
:1045D000BCF1FE6F01EB0C1102D8F0BCBDE800810C
:1045E00024425CBF01F5801E9EEAC47F02D4F0BC69
:1045F000BDE80081244238D4F0BCA1F1C041BDE83F
:10460000004100F0ADB94FEAD22242EA43524FEAEC
:10461000D323A7FB02864FEAD02040EA415007FB94
:1046200003661EEA0E0F4FEAD12105FB026658BF52
:10463000A6EB0056B6EB00564FEA520E4EEAC37E8A
:1046400018EB0E0E56EB530EBDD518EB02085E416B
:104650007F1C55F10005B6E74FF480154FF00007B9
:104660004FF000064FF00008ADE7F0BC4FF000003F
:1046700001F1C04101F00041BDE8008111EA0C1FC9
:104680000CEA131500D00CE013EA0C1F00F0258093
:104690004FF00000F0BC81EA030101F00041BDE8E9
:1046A0000081F0BCBDE8004181EA030100F058B987
:1046B000F0BCBDE8004170B500F004F9097EFC3E95
:1046C00000F007B881EA03014FF0000001F000415B
:1046D000704781EA030100F043B9F0BCBDE8004136
:1046E0004FF0000021497047FFFDFBF9F7F5F4F2A8
:1046F000F0EEEDEBE9E8E6E4E3E1E0DEDDDBDAD87D
:10470000D7D5D4D3D1D0CFCDCCCBCAC8C7C6C5C4DA
:10471000C2C1C0BFBEBDBCBBBAB9B8B7B6B5B4B3F1
:10472000B2B1B0AFAEADACABAAA9A8A8A7A6A5A4DC
:10473000A3A3A2A1A09F9F9E9D9C9C9B9A999998A0
:104740009797969595949393929191908F8F8E8E43
:104750008D8C8C8B8B8A89898888878786858584D0
:1047600084838382828181800000FF070000F87FBC
:10477000DFF848C170B51CEA111E1EBF1CEA1315F4
:104780009EEA0C0F95EA0C0F00F06F8081EA03049B
:1047900023EA4C134EEAD47E21EA4C1141F48011F5
:1047A00043F48013AE44A1FB024CA0FB0365AEF1C1
:1047B0007F7E361955EB0C05A1FB034C4CF1000331
:1047C000A0FB021C16EB0C06654153F100030942E5
:1047D00018BF46F0010613F4007F0BD14FEA0331F6
:1047E0004FEA0530340341EA155140EA16506FF0A4
:1047F00003020AE04FEAC3214FEAC520F40241EA6E
:10480000555140EA56506FF0020202EB2E4201EB86
:10481000025585EACE710AD05FEA440C18BF24F035
:10482000004450F1000041F1000120EAD47040F250
:10483000FE7C624500D270BDA84214BF4FF0804498
:104840004FF04044002E08BF0024BEF1806FA8BF87
:10485000A1F1C041BDE8704080F282804FF00000BD
:1048600001F1C04101F0004170479EEA0C0F0CEAD3
:10487000131518BF95EA0C0F06D04FF0000081EA1F
:10488000030E0EF0004170BD00F01CF88900013EDF
:1048900000F007B800F009B84FEA430C5FEA5C5C2F
:1048A00008D081EA030100F05BB84FEA410C5FEAEF
:1048B0005C5CF6D14FF00000014970470000FF0733
:1048C0000000F87F0EF1020E2EF0030E5EF8046B6E
:1048D000364205D4012A43EB030515F5001F12D813
:1048E000012841EB010C1CF5001F0CD80ED14FEA3A
:1048F000D17C15F5001F0CEB4C0C0CF1020C08BF21
:104900004CEBD37C04E04FF0080C01E04FEAD37C81
:104910000CEB4C0526FA05F606F00706B6F1040C7A
:1049200006D20EEB860CBDE870404CF0010C6047DF
:10493000DFE80CF0090B02024FF000414FF00000DD
:10494000A1F5002170BD19461046012851EB010464
:1049500018BFD4F5001484BF002001F0004170BDE1
:104960000808A0F500114FEA3101704710B591EA2F
:10497000030F48BF83F000433FF502AD841A71EB8B
:10498000030C07D212198CF0004C43EB0C03001BF4
:1049900061EB0C01DFF8A4E14FEA1154A4EB135CC6
:1049A0001EEA430F18BF9EEA445F00F0B08023EA7E
:1049B0006E03524221EA0451C3EB6E0338BF5B1E03
:1049C000DCF1200E25D322FA0CFE10EB0E0043FA88
:1049D0000CFE41EB0E01CCF1200E03FA0EFE10EBA3
:1049E0000E0051F10001CCF1200E29D412FA0EF282
:1049F00001EB0451BDE8104058BF7047401C1CBF7C
:104A0000B2F1004F704700280CBF491C20F0010094
:104A1000704712EB020E43EB030218BF4FF0010E7A
:104A20004EEA4202ACF1200CDCF11E0E54D943FADE
:104A30000CFE10EB0E0051F1FF31CCF11E0ED5D55E
:104A40000EF1010E12FA0EFE404141EB010101EBA5
:104A5000445C5FEA5C5C10D910EBDE7001EB045142
:104A600038BFBEF1004FBDE8104018BF70470028A6
:104A70000CBF491C20F00100704730D24FEAD42C03
:104A800011F5001124F400641BD0B1FA81F20B3A45
:104A9000A41AA41ED2F12003914030FA03F3194363
:104AA000904001EBCC71002C01EB0451BDE81040AB
:104AB000A8BF704701F1C0414FF0000001F0004174
:104AC0007047B0FA80F310FA03F100D110BDE41A78
:104AD000173C4805C90AE4E701EB045110BD491031
:104AE00001EB0451BDE810404FEA300002E04FF006
:104AF000000170474A0008BF0042F8D0B2F5001F1D
:104B000028BF704701F000414FF0000070479EEA57
:104B1000445F07D011EA5E0FBDE8104004BF0021DA
:104B200000207047BDE8104070B5FFF7CBFE00BF16
:104B300040DFF63E83F00041104670470000E0FF82
:104B400043004FEAD30C4FEA3C0C43401FBF4007E1
:104B50000CF1605113F0FE4F70471CF0006F03D151
:104B600000200CF0004170470CF0004343EA507005
:104B700010B540EACC0000F086F900BF00000092BA
:104B80004FEA0001FFF7ECBE4FF000414FF000008C
:104B9000A1F50021704700004FF47F0C1CEAD012F1
:104BA0001EBF1CEAD11392EA0C0F93EA0C0F00F01F
:104BB000858090EA010F48BF42F4807240F4000CF7
:104BC00041F400002CF07F4120F07F4000B581428D
:104BD000A2EB03020FF2081CACEB504EC0F1000038
:104BE0009EF800E04FEA4E0E00FB0EFC38BF490075
:104BF0004FEA2C1C02F5FA020CFB0EF34FEACE1E14
:104C00004FEA112C4FEAC1210EEB635E42EB2242C8
:104C10000EFB0CFC4FEA1C5300FB03114FEA112C56
:104C20004FEA01310EFB0CFC4FEADC4C00FB0C118F
:104C3000C14228BF09184CEB03335DF804EB10EBBD
:104C4000410143EBC250B2F57C0F38BF704729D504
:104C500012F0F00F1CBF00F1C04000F000407047A0
:104C6000008182838485868788898B8C8D8E8F9145
:104C70009293959697999A9C9D9FA0A2A3A5A7A869
:104C8000AAACAEB0B2B3B5B7B9BCBEC0C2C5C7C995
:104C9000CCCED1D4D7D9DCDFE2E6E9ECF0F3F7FAF9
:104CA000FE0000004FEA400C0CF1807CBCF17E4F0E
:104CB00028BF7047B0F1C04000F02BB990EA010F57
:104CC0000CEAD11348BF42F48072624538BF634595
:104CD00007D213F47F0F16D080EA010000F00040E5
:104CE000704710B500F0CFF8097EFC3E00F005B823
:104CF00080EA010000F00040704780EA010000F007
:104D0000004000F006B912F47F0F04BF024870475C
:104D100080EA010000F0FDB80000C07FC10DD1F1B4
:104D20009E0206DB4FEA002343F0004323FA02F021
:104D30007047004207D54FEA4001B1F1FE4F02D261
:104D40004FF00000704710B500F09DF849922480A4
:104D5000002070476FEA200070470000B0FA80F32F
:104D600010FA03F2C3F19D030AD0D90501EB12201A
:104D7000530638BF704700F1010008BF20F0010062
:104D8000704700004FF47F0C1CEAD0121EBF1CEAD3
:104D9000D11392EA0C0F93EA0C0F00F0478090EACF
:104DA000010F48BF42F480724FF0004C4CEA0020E3
:104DB0004CEA012102EB0302A0FB0113A2F5000261
:104DC000002918BF43F001035B0028BF4FEA3303FB
:104DD00042EB22425FEA132C4CEBC2502EBFBCEBDD
:104DE000436FB2F57C0F70474FEA036CBCF1004F84
:104DF00008BF20F00100B2F57C0F38BF70470BD51B
:104E000082F0FF0212F5803FC8BF704700F1C0403A
:104E1000D8BF00F00040704700F5000C5FEA4C0C72
:104E200048BF7047B0F1C04000F073B890EA010F7E
:104E30000CEAD11348BF42F48072624538BF634523
:104E400004D280EA010000F00040704710B500F085
:104E50001AF800BF8900013E00F007B800F009B859
:104E60005FEA410C5FEA1C6C08D080EA010000F0A8
:104E700050B85FEA400C5FEA1C6CF6D14FF000407E
:104E8000A0F5800070470EF1020E2EF0030E5EF8C2
:104E9000044B244204D44FEA4102B2F17F4F11D8AF
:104EA0004FEA4003B3F17F4F0CD80ED14FEAD07CCC
:104EB000B2F17F4F0CEB4C0C0CF1020C08BF4CEB29
:104EC000D17C04E04FF0080C01E04FEAD17C0CEB00
:104ED0004C0324FA03F404F00704B4F1040C06D2E2
:104EE0000EEB840CBDE810404CF0010C6047DFE88D
:104EF0000CF0070802024FF00040A0F5800010BD42
:104F00000846420018BFD2F1807288BF00F000400E
:104F100010BDFF2141EAD050C005704702030405CF
:104F2000060708090A0B0C0D0E0F101001020203F0
:104F30000405060708090A0B0C0D0E0F10100102DC
:104F40000000000000000000010203040607080939
:104F50000000000001020304484C010000000000B2
:104F60000000000000000000884F00080000002042
:104F70006000000028010008E84F000860000020E1
:104F8000E80A0000440100080101001100000000CF
:104F90000000000000000000000000000000000011
:104FA0000000000000000000000000000000000001
:104FB00000000000100000000100000000127A0054
:104FC0000002010406FFFFFF0000000000000000D7
:104FD00000000000000000000000021700000000B8
:084FE0000000000000000000C9
:04000005080000ED02
:00000001FF
