:020000040800F2
:10000000380B00208901000825300008992A0008D3
:100010002130000835060008113A000800000000F1
:100020000000000000000000000000003531000862
:10003000FD080008000000002930000837310008E2
:10004000A3010008A3010008A3010008A301000800
:10005000A3010008A3010008A3010008A3010008F0
:10006000A3010008A3010008A30100085D0800081F
:10007000A3010008A3010008A30100086D080008FF
:100080007D080008A3010008A3010008A3010008DF
:10009000A3010008A3010008A3010008A3010008B0
:1000A000A3010008A3010008A3010008A3010008A0
:1000B000A3010008A3010008C9310008A30100083A
:1000C000A3010008A3010008A3010008A301000880
:1000D000A3010008693800083D390008A3010008A1
:1000E000A3010008A3010008A301000800F002F822
:1000F00000F03AF80AA090E8000C82448344AAF188
:100100000107DA4501D100F02FF8AFF2090EBAE885
:100110000F0013F0010F18BFFB1A43F0010318473B
:10012000743D0000943D0000103A24BF78C878C1A7
:10013000FAD8520724BF30C830C144BF04680C60ED
:10014000704700000023002400250026103A28BF35
:1001500078C1FBD8520728BF30C148BF0B60704739
:100160001FB51FBD10B510BD00F0AEF81146FFF76A
:10017000F7FF03F007FE00F0CCF803B4FFF7F2FF3F
:1001800003BC00F0D3F80000094880470948004745
:10019000FEE7FEE7FEE7FEE7FEE7FEE7FEE7FEE737
:1001A000FEE7FEE704480549054A064B7047000094
:1001B000C5310008ED00000838050020380B00208C
:1001C000380700203807002040EA010310B59B07DC
:1001D0000FD1042A0DD310C808C9121F9C42F8D0B1
:1001E00020BA19BA884201D9012010BD4FF0FF3062
:1001F00010BD1AB1D30703D0521C07E0002010BD78
:1002000010F8013B11F8014B1B1B07D110F8013B03
:1002100011F8014B1B1B01D1921EF1D1184610BDE4
:1002200002F0FF0343EA032242EA024200F002B86E
:100230004FF000020429C0F0128010F0030C00F00F
:100240001B80CCF1040CBCF1020F18BF00F8012B8D
:10025000A8BF20F8022BA1EB0C0100F00DB85FEA5B
:10026000C17C24BF00F8012B00F8012B48BF00F827
:10027000012B70474FF0000200B513469446964696
:10028000203922BFA0E80C50A0E80C50B1F12001A9
:10029000BFF4F7AF090728BFA0E80C5048BF0CC057
:1002A0005DF804EB890028BF40F8042B08BF7047B5
:1002B00048BF20F8022B11F0804F18BF00F8012B27
:1002C0007047704770477047754600F02BF8AE4690
:1002D00005006946534620F00700854618B020B552
:1002E000FFF760FFBDE820404FF000064FF0000729
:1002F0004FF000084FF0000B21F00701AC46ACE8CE
:10030000C009ACE8C009ACE8C009ACE8C0098D463A
:10031000704710B50446AFF300802046BDE810409A
:10032000FFF72BBF00487047D40400200149182074
:10033000ABBEFEE726000200704770B504460025FC
:100340002068806800F0010018B32068806820F001
:1003500001002168886001F063F9054613E001F0AF
:100360005FF9401B02280ED92068806800F0010068
:1003700048B1A06A40F01000A062E06A40F00100BD
:10038000E062012070BD2068806800F00100002854
:10039000E5D10020F6E770B505466C6AA06A00F06A
:1003A0005000E0B9A06A40F40070A0622068806844
:1003B00000F46020B0F5602F0DD1207B58B9A06A01
:1003C00020F48070A062A06A00F4805018B9A06A7E
:1003D00040F00100A062204600F0E6FB03E0206A46
:1003E000016B2846884770BD70B505466C6AA06AE7
:1003F00040F04000A062E06A40F00400E062204665
:1004000000F0D4FB70BD70B50446656A284600F064
:10041000CCFB70BD38B50446002500200090206854
:10042000806800F0010078BB2068806840F001001F
:1004300021688860194800681949B0FBF1F0009004
:1004400002E00098401E009000980028F9D101F0C9
:10045000E7F8054619E001F0E3F8401B022814D93B
:100460002068806800F0010078B9A06A40F01000B0
:10047000A062E06A40F00100E06200BF002084F862
:10048000240000BF012038BD05E02068806800F02E
:1004900001000028DFD00020F5E700002400002044
:1004A00040420F0000B585B00020019002900390FB
:1004B000049000BF1248806940F00800104988612C
:1004C0000846806900F00800009000BF00BF4FF4AC
:1004D00040700190112002900020039003200490AE
:1004E00001A9084800F006FF01221102054801F0A9
:1004F00091F801225102034801F08CF805B000BDCB
:1005000000100240000C014070B506460C4615462E
:1005100008E03046721C96B200F007F804F8010BB0
:10052000681E85B2002DF4D170BD70B5044600255B
:1005300002F0FAFBA02002F0C1FB02F035FC201211
:1005400002F0BCFB02F030FCE0B202F0B7FB02F0BC
:100550002BFC02F0E9FBA12002F0B0FB02F024FC2E
:10056000002002F07DFB054602F0FEFB284670BD30
:1005700070B505460C46164606E02178284600F080
:1005800009F8681C85B2641C301EA6F101018EB208
:10059000F3D170BD70B504460D4602F0C5FBA02036
:1005A00002F08CFB02F000FC201202F087FB02F04C
:1005B000FBFBE0B202F082FB02F0F6FB284602F001
:1005C0007DFB02F0F1FB02F0CFFB0A2003F0AEFB53
:1005D00070BD000000B587B0142102A8FFF74AFEE5
:1005E00000200090019011481149086047204860A0
:1005F00000210F4881604FF47A71C16000210161D0
:10060000816101F0AFFD08B100F080F90020009099
:1006100001906946064801F063FD08B100F076F9E3
:10062000034801F0F5FD07B000BD000000080040E0
:100630004C04002000BFFEE74348006800F400605F
:1006400018B10320414908700BE04148006800F4EC
:10065000807018B102203D49087002E000203B493B
:1006600008703948006800F0020018B103203749CB
:1006700048700CE03448001F006800F4004018B1D6
:1006800002203249487002E00020304948702E486C
:10069000006800F0010018B103202C4988700CE0BC
:1006A0002948001F006800F4804018B10220274943
:1006B000887002E00020254988702548001D0068E8
:1006C00000F0800018B103202049C8700CE01E48DB
:1006D000001F006800F4005018B102201B49C870C8
:1006E00002E000201949C8701948001D006800F098
:1006F000400018B10320154908710CE01248001F92
:10070000006800F4805018B102201049087102E01E
:1007100000200E4908710E48001D006800F02000FE
:1007200018B10320094948710CE00748001F006810
:1007300000F4806018B102200449487102E00020F2
:1007400002494871704700000C0C0140080000206D
:100750000808014010B50B7803B910BD3A4B1B686F
:10076000C31A322B00D2F8E7374B1860374B1B788F
:10077000072B64D2DFE803F00414233241505E00FB
:10078000324B1B785B1C314C237013783BB14FF418
:1007900000632F4C236003232E4C237050E000BFD6
:1007A0002A4B1B785B1C294C2370537833B10223EE
:1007B000274C23600323274C637041E000BF234B89
:1007C0001B785B1C214C2370937833B10123204CA0
:1007D000236003231F4CA37032E000BF1B4B1B7828
:1007E0005B1C1A4C2370D37833B180231A4C2360DE
:1007F0000323184CE37023E000BF144B1B785B1CF1
:10080000124C2370137933B14023134C236003231C
:10081000104C237114E000BF0C4B1B785B1C0B4C7D
:10082000237053792BB120230B4C23600323094CF5
:10083000637100BF00230B70044C237000E000BF05
:1008400000BF00BF89E70000480000204C000020E6
:10085000100C0140080000201008014010B50248AB
:1008600000F0E4FB10BD00000804002010B50248B1
:1008700000F0DCFB10BD0000F000002010B50248C5
:1008800000F0D4FB10BD00003401002008B500BF0B
:100890000E48406940F001000C4948610846406933
:1008A00000F00100009000BF00BF002211460F20A1
:1008B00000F03CFF0F2000F029FF0022114610201D
:1008C00000F034FF102000F021FF08BD00100240AE
:1008D00030B590F840500124AC40C56B6C600468A2
:1008E00063604468102C04D10468A2600468E1606D
:1008F00003E00468A1600468E26030BD7047002036
:1009000001E0411CC8B23228FBDB704772B600BF61
:10091000FEE730B502460020002304E012F8014B48
:1009200060405C1CA3B28B42F8DB30BDF8B50446D6
:1009300000260020009000BF94F82400012801D177
:100940000220F8BD012084F8240000BF2046FFF7F4
:10095000F4FC06462046FFF75DFD0646002E69D1F1
:10096000A06A20F4885040F00200A062022000F04B
:100970002FFF34490968B1FBF0F04000009002E01D
:100980000098401E009000980028F9D120688068E7
:1009900040F008002168886000F042FE054616E03D
:1009A00000F03EFE401B0A2811D92068806800F044
:1009B000080060B1A06A20F0020040F01000A062C0
:1009C00000BF002084F8240000BF0120B9E72068A0
:1009D000806800F008000028E2D12068806840F0BC
:1009E00004002168886000F01BFE054616E000F058
:1009F00017FE401B0A2811D92068806800F0040007
:100A000060B1A06A20F0020040F01000A06200BFB8
:100A1000002084F8240000BF012092E7206880684D
:100A200000F004000028E2D1A06A20F0020040F0AB
:100A30000100A06200BF002084F8240000BF3046FF
:100A40007FE700002400002038B502460023002084
:100A5000009000BF92F82400012801D1022038BD87
:100A6000012082F8240000BF4868072812D21068CD
:100A7000406B0C79641E04EB84051F24AC40A0433A
:100A80000D796D1E05EB85050C68AC40204314689C
:100A9000606327E048680D2812D21068006B0C795B
:100AA000E41F04EB84051F24AC40A0430D79ED1F27
:100AB00005EB85050C68AC4020431468206311E009
:100AC0001068C06A0C790D3C04EB84051F24AC400F
:100AD000A0430D790D3D05EB85050C68AC40204326
:100AE0001468E06208680A2812D31068C0680C789D
:100AF0000A3C04EB44050724AC40A0430D780A3DB2
:100B000005EB45058C68AC4020431468E0600FE0BD
:100B1000106800690C7804EB44050724AC40A0433E
:100B20000D7805EB45058C68AC40204314682061C6
:100B30000868102802D00868112827D1174C1068BF
:100B4000A0421ED11068806800F40000F0B910685F
:100B5000806840F400001468A0600868102815D16F
:100B60000F4800680F4CB0FBF4F000EB8000400031
:100B7000009002E00098401E009000980028F9D1F3
:100B800004E0906A40F020009062012300BF002042
:100B900082F8240000BF184661E7000000240140ED
:100BA0002400002040420F0070477047704700004B
:100BB0002DE9F0410446002700250026A84614B977
:100BC0000120BDE8F081A06810B1207D00B100BF18
:100BD000A06A30B90020E06284F82400204600F0CA
:100BE00089F82046FFF7A9FB0746A06A00F010002D
:100BF000002873D1002F71D1A06A20F4885040F0F2
:100C00000200A062E16960680843217B40EA41007C
:100C10000643A068B0F5807F02D0A068012802D109
:100C20004FF4807000E000200543207D012811D1A1
:100C3000207B38B9A069401E4FF4006141EA403082
:100C4000054307E0A06A40F02000A062E06A40F09F
:100C50000100E0622068406820F469402843216870
:100C600048602068806821490840304321688860D6
:100C7000A068B0F5807F02D0A068012802D14FF4AF
:100C8000807000E00020B0F5807F03D1208A401EF4
:100C90004FEA00582068C06A20F4700040EA08005B
:100CA0002168C8622068806811490840B04208D1B4
:100CB0000020E062A06A20F0020040F00100A06283
:100CC00011E0A06A20F0020040F01000A062E06A8B
:100CD00040F00100E062012705E0FFE7A06A40F074
:100CE0001000A062012738466BE70000FDF7E1FF26
:100CF000FE0E1FFF10B586B0044600200290039040
:100D0000049005902249206888423FD100BF2148C5
:100D1000806940F400701F4988610846806900F4CA
:100D20000070019000BF00BF00BF0846806940F01E
:100D3000040088610846806900F00400019000BF4B
:100D400000BF022002900320039002A9124800F085
:100D5000D1FA12481249086000204860002110486A
:100D600081608021C16049000161890041610021E9
:100D700081614FF48051C16100F026FA08B1FFF79C
:100D8000C5FD00BF06482062446200BF06B010BD2A
:100D90000024014000100240000801400800024009
:100DA000080400202DE9F04104460D4616460027B0
:100DB00057492068884203D056492068884205D1A7
:100DC0005348001D006800F4702000E00020002857
:100DD0007ED100BF94F82400012802D10220BDE892
:100DE000F081012084F8240000BF2046FFF712FBA9
:100DF0000746002F6DD1A06A40F60161884340F498
:100E00008070A06243492068884209D14048001D93
:100E1000006800F4702008B9012002E0002000E022
:100E2000012078B1A06A20F48010A0622068406898
:100E300000F4806000B3A06A20F4005040F48050B9
:100E4000A06219E0A06A40F48010A06230492068D6
:100E5000884203D02F492068884205D12C48001DC4
:100E6000006800F4806000E0002028B1A06A20F44F
:100E7000005040F48050A062A06A00F4805020B17D
:100E8000E06A20F00600E06201E00020E06200BFBE
:100E9000002084F8240000BF1F48216A88621F4890
:100EA000216AC8621E48216A08636FF00200216847
:100EB00008602068806840F480702168886022683B
:100EC00002F14C0133462A46206A00F0B1F901E0F4
:100ED0001AE014E02068806800F46020B0F5602F0C
:100EE00006D12068806840F4A000216888600CE08A
:100EF0002068806840F480102168886005E000BFA9
:100F0000002084F8240000E00127384667E700004D
:100F1000002401400028014097030008070400084E
:100F2000E90300080146002291F82100022808D0B8
:100F30000420886300BF002081F8200000BF01204A
:100F400070470868006820F00E000B681860086899
:100F5000006820F001000B68186091F84030012013
:100F60009840CB6B5860012081F8210000BF002021
:100F700081F8200000BF1046E2E7000070B504468B
:100F8000002594F82100022803D00420A063012545
:100F900048E02068006820F00E00216808602068A2
:100FA000006820F00100216808601F49206888421D
:100FB00001D1012026E01C4914312068884201D16A
:100FC00010201FE0184928312068884201D180157F
:100FD00018E015493C312068884201D1801411E0A5
:100FE000114950312068884202D14FF4803009E025
:100FF0000D4964312068884202D14FF4801001E02D
:101000004FF08070084908394860012084F82100B9
:1010100000BF002084F8200000BF606B10B12046A4
:10102000616B8847284670BD0800024070B50446D1
:10103000E06B05682068066894F84010042088403A
:101040002840002846D006F00400002842D020683E
:10105000006800F0200028B92068006820F0040033
:101060002168086057492068884201D1042027E0A0
:10107000544914312068884201D1402020E0514970
:1010800028312068884201D1001519E04D493C31D2
:101090002068884202D14FF4804011E04949503124
:1010A0002068884202D14FF4802009E0454964312C
:1010B0002068884202D14FF4800001E04FF0806048
:1010C000404908394860E06A00287AD02046E16A41
:1010D000884776E094F84010022088402840A0B36A
:1010E00006F0020088B32068006800F0200040B9D4
:1010F0002068006820F00A0021680860012084F858
:10110000210030492068884201D1022028E02D4981
:1011100014312068884201D1202021E0294928315A
:101120002068884201D140151AE026493C312068E8
:10113000884202D14FF4005012E022495031206819
:10114000884203D14FF400300AE017E01D496431B2
:101150002068884202D14FF4001001E04FF0007087
:1011600018490839486000BF002084F8200000BFFB
:10117000A06A30B32046A16A884722E094F8401064
:10118000082088402840E0B106F00800C8B1206877
:10119000006820F00E002168086094F840100120DB
:1011A0008840E16B48600120A06384F8210000BF03
:1011B000002084F8200000BF206B10B12046216B76
:1011C000884770BD080002400146002209B901208D
:1011D0007047164B0868C01A1423B0FBF3F0800068
:1011E000086412480838C863022081F821000868A2
:1011F000026843F6F0708243D1E901031843CB68DB
:1012000018430B6918434B6918438B691843CB6922
:10121000184302430868026000208863012081F8B7
:101220002100002081F8200000BFD1E70800024023
:101230002DE9F04104460D4616461F464FF00008C2
:1012400000BF94F82000012802D10220BDE8F081FF
:10125000012084F8200000BF94F8210001282CD13F
:10126000022084F821000020A0632068006820F09C
:101270000100216808603B46324629462046FFF7B8
:1012800027FBE06A30B12068006840F00E0021685A
:1012900008600BE02068006820F004002168086006
:1012A0002068006840F00A00216808602068006833
:1012B00040F001002168086006E000BF002084F8CB
:1012C000200000BF4FF002084046BFE770B504465B
:1012D00000F0A6F906462546681C10B104480078BF
:1012E000054400BF00F09CF9801BA842FAD370BDF2
:1012F000200000202DE9F8470346002294466EE1C5
:101300004FF0010808FA02F4D1F8008008EA04005E
:10131000A0427DD1DFF8DCA2D1F80480A8EB0A0955
:10132000D0453AD014DCB8F1030F50D009DCB8F145
:10133000000F31D0B8F1010F1CD0B8F1020F49D124
:1013400020E0B8F1110F18D0B8F1120F42D11EE011
:10135000B9F5881F25D006DCB9F5803F20D0B9F556
:10136000801F37D11AE0B9F5001F18D0B9F5041F56
:1013700030D117E0D1F80CC02DE0D1F80C8008F185
:10138000040C28E0D1F80C8008F1080C23E0D1F817
:101390000C8008F10C0C1EE000BF00BF00BF00BFB6
:1013A00000BF00BFD1F80880B8F1000F02D14FF0A4
:1013B000040C0BE0D1F80880B8F1010F03D14FF015
:1013C000080C1C6102E04FF0080C5C6103E04FF078
:1013D000000C00E000BF00BFFF2801D8984601E0E4
:1013E00003F104084646FF2802D84FEA820803E0CA
:1013F000A2F108084FEA88084746D6F800804FF067
:101400000F0909FA07F928EA09080CFA07F900E0B8
:1014100088E048EA0908C6F80080D1F8048008F09E
:101420008058B8F1805F7DD100BFDFF8CC81D8F85B
:10143000188048F00108DFF8C091C9F81880C84644
:10144000D8F8188008F00108CDF8008000BF00BF70
:101450004FEAB9384FEA920958F829504FEA827892
:101460004FEA18794FF00F0808FA09F825EA08053D
:10147000DFF88881434502D14FF0000816E0DFF81D
:101480008081434502D14FF001080FE0DFF87481FD
:10149000434502D14FF0020808E0DFF86C81434574
:1014A00002D14FF0030801E04FF004084FEA8279BF
:1014B0004FEA197908FA09F848EA0505DFF84C817E
:1014C0004FEA920948F82950D1F8048008F48018AE
:1014D000B8F5801F0AD1DFF83881D8F8008048EAD3
:1014E0000008DFF82C91C9F8008009E0DFF82081BE
:1014F000D8F8008028EA0008DFF81491C9F80080C5
:10150000D1F8048008F40018B8F5001F10D1DFF8F6
:10151000008108F10408D8F8008048EA0008DFF8E4
:10152000F09000E05AE009F10409C9F800800DE0EC
:10153000DFF8DC8008F10408D8F8008028EA000809
:10154000DFF8CC9009F10409C9F80080D1F80480D3
:1015500008F40038B8F5003F0ED1DFF8B480A8F1E8
:101560000408D8F8008048EA0008DFF8A490A9F140
:101570000409C9F800800DE0DFF89480A8F10408A0
:10158000D8F8008028EA0008DFF88490A9F104095F
:10159000C9F80080D1F8048008F48038B8F5803F9D
:1015A0000ED1DFF86C80A8F10808D8F8008048EA6E
:1015B0000008DFF85C90A9F10809C9F800800DE087
:1015C000DFF84C80A8F10808D8F8008028EA000865
:1015D000DFF83C90A9F10809C9F80080521CD1F845
:1015E000008028FA02F8B8F1000F7FF489AEBDE858
:1015F000F8870000000011100010024000080140B0
:10160000000C01400010014000140140080001409E
:10161000080401400AB1016101E00B040361704755
:101620000148006870470000180000200348006867
:1016300003490978084401490860704718000020F0
:101640002000002010B50848006840F0100006494E
:101650000860032000F0A8F80F2000F007F800F061
:101660002BF8002010BD00000020024070B5044699
:101670000E4800784FF47A71B1FBF0F00C4909681C
:10168000B1FBF0F5284600F00FFD08B1012070BD58
:10169000102C07D200222146501E00F047F80548C2
:1016A000046001E00120F2E70020F0E720000020C4
:1016B000240000201C00002008B500BF11488069EC
:1016C00040F001000F4988610846806900F0010080
:1016D000009000BF00BF00BF0846C06940F08050C6
:1016E000C8610846C06900F08050009000BF00BF8C
:1016F00000BF0549486820F0E06040F00070486095
:1017000000BF08BD0010024000000140014608462D
:10171000002809DB00F01F0301229A4043099B00C7
:1017200003F1E023C3F8002100BF70472DE9F05F0B
:1017300080460D461646002702F06CF907463946EA
:101740002A46334601F00700C0F1070ABAF1040F38
:1017500002D94FF0040A01E0C0F1070AD14600F1B6
:10176000040ABAF1070F02D24FF0000A01E0A0F11B
:10177000030AD4464FF0010A0AFA09FAAAF1010A4B
:101780000AEA020A0AFA0CFA4FF0010B0BFA0CFBF8
:10179000ABF1010B0BEA030B4AEA0B04214640466E
:1017A00002F040F9BDE8F09F00BF00F00702064BD1
:1017B00019684FF6FF031940044B0B4343EA02211B
:1017C000014B196000BF70470CED00E00000FA0506
:1017D0002DE9F04706464FF00008002500270024B9
:1017E000A146012E31D0022E56D0102E5FD13248A4
:1017F0004468006800F0807008B33048C4F3834147
:10180000475C04F4803078B12B484068C0F3404016
:101810002B4911F8008004F4803040B12948B0FB16
:10182000F8F000FB07F502E0274807FB00F5224827
:10183000406800F48000B0F5800F01D1A94603E0B4
:1018400068000321B0FBF1F932E01B48046A04F49C
:101850004070B0F5807F05D104F0020010B14FF464
:10186000004918E004F44070B0F5007F07D1124839
:10187000406A00F0020010B149F640490BE004F460
:101880004070B0F5407F06D10B48006800F400308E
:1018900008B14FF224490BE000F08CF90649496881
:1018A000C1F38131491C4900B0FBF1F900E000BFF0
:1018B00000BF4846BDE8F087001002406A3E0008BD
:1018C0007A3E000800127A0000093D00F8B504468F
:1018D00000260025207800F0010000286BD00027AA
:1018E0004348C06900F0805070B900BF4048C069EB
:1018F00040F080503E49C8610846C06900F0805001
:10190000009000BF00BF01273A48006800F48070D3
:10191000B0B93848006840F4807036490860FFF775
:101920007FFE064606E0FFF77BFE801B642801D998
:101930000320F8BD2F48006800F480700028F2D022
:101940002B48006A00F440752DB3A08800F4407065
:10195000A84220D02648006A20F44075012026497C
:101960000860002008602248056205F0010090B17F
:10197000FFF756FE064608E0FFF752FE801B41F2D5
:101980008831884201D90320D3E71948006A00F062
:1019900002000028F0D01648006A20F44070616808
:1019A000084313490862012F04D10846C06920F09A
:1019B0008050C86100BF207800F00200022807D1E3
:1019C0000B48406820F44040A1680843084948603B
:1019D000207800F01000102807D10548406820F456
:1019E0008000E1680843024948600020A1E7000048
:1019F00000100240007000404004424270B50446AE
:101A00000D460CB9012070BD5A48006800F007006F
:101A1000A8420ED25748006820F0070028435549D5
:101A200008600846006800F00700A84201D00120C5
:101A3000E9E7207800F0020002281DD1207800F0AC
:101A40000400042805D14C48406840F4E0604A494D
:101A50004860207800F00800082805D14648406812
:101A600040F46050444948604348406820F0F0002A
:101A7000A168084340494860207800F0010078B32D
:101A80006068012806D13C48006800F4003090B935
:101A90000120B8E76068022806D13748006800F0E6
:101AA000007040B90120AEE73348006800F0020042
:101AB00008B90120A7E73048406820F003006168BA
:101AC00008432D494860FFF7ABFD064609E0FFF7E4
:101AD000A7FD801B41F28831884202D9032092E79A
:101AE00007E02548406800F00C006168B0EB810F0A
:101AF000EDD12048006800F00700A8420ED91D482B
:101B0000006820F0070028431A490860084600686A
:101B100000F00700A84201D0012074E7207800F00F
:101B20000400042807D11448406820F4E060E1680C
:101B3000084311494860207800F00800082808D1BF
:101B40000D48406820F46050216940EAC1000A490C
:101B5000486000F03FF808494968C1F30311074A9B
:101B6000515CC8400649086006480068FFF77EFDE2
:101B7000002048E700200240001002407C3E0008A0
:101B8000240000201C00002001480068704700006D
:101B90002400002000B5FFF7F7FF04494968C1F3AE
:101BA0000221034A515CC84000BD00000010024001
:101BB0008C3E000800B5FFF7E7FF04494968C1F310
:101BC000C221034A515CC84000BD00000010024021
:101BD0008C3E000870B50021002200240023002064
:101BE000134D696801F00C05F5B1042D02D0082DE4
:101BF00019D101E00F4819E00F4DC1F38346AB5DE9
:101C000001F4803555B10A4D6D68C5F340450B4E62
:101C1000725D084D5D43B5FBF2F402E0084D03FB35
:101C200005F4204602E000BF024800BF00BF70BDBF
:101C30000010024000127A00583E0008683E00087A
:101C400000093D00F8B504460CB90120F8BD207824
:101C500000F00100002878D0F848406800F00C003F
:101C600004280CD0F548406800F00C00082811D179
:101C7000F248406800F48030B0F5803F0AD1EF4868
:101C8000006800F4003000285FD0606800285CD154
:101C90000120DBE700BF6068B0F5803F06D1E74870
:101CA000006840F48030E549086028E0606858B971
:101CB000E248006820F48030E04908600846006887
:101CC00020F4802008601AE06068B0F5A02F0BD1E6
:101CD000DA48006840F48020D84908600846006867
:101CE00040F4803008600AE0D448006820F4803076
:101CF000D24908600846006820F48020086000BFD0
:101D0000606888B1FFF78CFC054606E0FFF788FCA9
:101D1000401B642801D9032098E7C848006800F4F4
:101D200000300028F2D010E0FFF77AFC054606E00C
:101D3000FFF776FC401B642801D9032086E7BF48E3
:101D4000006800F400300028F2D1207800F0020092
:101D5000022857D1B948406800F00C0050B1B7488C
:101D6000406800F00C00082818D1B448406800F41E
:101D7000803098B9B148006800F0020020B12069B5
:101D8000012801D0012061E7AC48006820F0F8008C
:101D9000616940EAC100A949086033E02069E8B1FF
:101DA0000120A7490860FFF73BFC054606E0FFF766
:101DB00037FC401B022801D9032047E79F480068F1
:101DC00000F002000028F2D09C48006820F0F800E3
:101DD000616940EAC1009949086013E00020984910
:101DE0000860FFF71DFC054606E0FFF719FC401BE5
:101DF000022801D9032029E79048006800F002007A
:101E00000028F2D1207800F0080008282DD1A06920
:101E1000B8B101208B490860FFF702FC054606E0D7
:101E2000FFF7FEFB401B022801D903200EE7834881
:101E3000406A00F002000028F2D0012001F066F9AB
:101E400013E000207F490860FFF7EAFB054606E043
:101E5000FFF7E6FB401B022801D90320F6E677488E
:101E6000406A00F002000028F2D1207800F004005F
:101E7000042873D100277148C06900F0805070B900
:101E800000BF6E48C06940F080506C49C861084688
:101E9000C06900F08050009000BF00BF01276A4871
:101EA000006800F48070B0B96748006840F4807042
:101EB00065490860FFF7B4FB054606E0FFF7B0FB95
:101EC000401B642801D90320C0E65F48006800F485
:101ED00080700028F2D000BFE068012806D1574882
:101EE000006A40F001005549086227E0E06858B9EF
:101EF0005248006A20F00100504908620846006A12
:101F000020F00400086219E0E06805280BD14B4876
:101F1000006A40F00400494908620846006A40F03F
:101F2000010008620AE04548006A20F001004349C8
:101F300008620846006A20F00400086200BFE068FA
:101F4000A0B1FFF76DFB054609E0FFF769FB401BF9
:101F500041F28831884202D9032077E622E03748EF
:101F6000006A00F002000028EFD012E0FFF758FBF3
:101F7000054608E0FFF754FB401B41F288318842D8
:101F800001D9032062E62D48006A00F00200002813
:101F9000F0D1012F05D12948C06920F08050274990
:101FA000C86100BFE069C8B32448406800F00C0075
:101FB000082860D0E069022848D10020204908663E
:101FC000FFF72EFB054606E0FFF72AFB401B022821
:101FD00001D903203AE61948006800F00070002893
:101FE000F2D1206AB0F5803F07D11448406820F450
:101FF0000030A168084311494860D4E9080108434A
:102000000E49496821F4741108430C4948600120C5
:102010000B490866FFF704FB054607E03DE0FFF7C4
:10202000FFFA401B022801D903200FE6034800688D
:1020300000F000700028F2D02FE0000000100240F5
:1020400000004242800442420070004000201449D7
:102050000866FFF7E5FA054606E0FFF7E1FA401BE0
:10206000022801D90320F1E50E48006800F0007055
:102070000028F2D111E0E069012800D1E6E5094825
:10208000466806F48031206A814204D106F470115A
:10209000606A814201D00120D8E50020D6E5000029
:1020A000000042420010024070B504462546681EFA
:1020B000B0F1807F01D301200FE0681E4FF0E021D6
:1020C00048610F214FF0FF3001F0ACFC00204FF0D1
:1020D000E021886107200861002070BD70477047CB
:1020E00030B502460B4600BF92F83C00012801D1F2
:1020F000022030BD012082F83C0000BF022082F89F
:102100003D00106844681068816824F07004186805
:10211000044310684460104D1068A8420BD010684A
:10212000B0F1804F07D00D4D1068A84203D00C4D80
:102130001068A84205D121F0800158680143106859
:102140008160012082F83D0000BF002082F83C0041
:1021500000BF00BFCDE70000002C0140000400409C
:102160000008004010B504460CB9012010BD94F8D9
:102170003D0028B9002084F83C00204600F026F8F5
:10218000022084F83D00211D206801F025F801207F
:1021900084F8460000BF84F83E0001213F2001552D
:1021A000402001554120015500BF00BF012084F8A7
:1021B000420043200155442001554520015500BFF0
:1021C000012084F83D000020D0E7000038B5044627
:1021D0000D492068884215D100BF0C48C06940F005
:1021E00004000A49C8610846C06900F00400009074
:1021F00000BF00BF002211461E20FFF797FA1E20E5
:10220000FFF784FA38BD00000008004000100240CB
:10221000014691F83D00012801D0012070470220BD
:1022200081F83D000868C06840F001000B68D86084
:10223000124B086898420BD00868B0F1804F07D065
:102240000F4B0868984203D00E4B086898420CD197
:102250000868806800F00702062A0CD00868006849
:1022600040F001000B68186005E00868006840F065
:1022700001000B6818600020D0E70000002C01402E
:102280000004004000080040704770B50446206814
:10229000C5682068066906F00200022819D105F019
:1022A0000200022815D1401F216808610120207713
:1022B0002068806900F0030018B12046FFF7E4FFB2
:1022C00005E0204600F097F8204600F095F8002041
:1022D000207706F00400042819D105F00400042832
:1022E00015D1C043216808610220207720688069E9
:1022F00000F4407018B12046FFF7C6FF05E0204605
:1023000000F079F8204600F077F80020207706F0FA
:102310000800082819D105F00800082815D1C04385
:1023200021680861042020772068C06900F003005C
:1023300018B12046FFF7A8FF05E0204600F05BF843
:10234000204600F059F80020207706F010001028F1
:1023500019D105F01000102815D1C043216808617B
:10236000082020772068C06900F4407018B120462A
:10237000FFF78AFF05E0204600F03DF8204600F018
:102380003BF80020207706F0010048B105F001007D
:1023900030B16FF0010021680861204600F02EF88E
:1023A00006F08000802809D105F08000802805D142
:1023B000C043216808612046FFF790FE06F0400008
:1023C000402809D105F04000402805D1C0432168CC
:1023D0000861204600F030F806F02000202809D1DE
:1023E00005F02000202805D1C0432168086120465F
:1023F000FFF775FE70BD7047704700000B498842BB
:1024000012D10B490968491C094A11601146096833
:102410004FF47A72B1FBF2F302FB131121B90549B3
:102420000968491C034A1160704700004C040020F1
:10243000380000203C0000207047704770B504460B
:10244000002520684069C0F3C01594F84100212898
:1024500017D1B5B100BF00BF2168143151E8001F8A
:1024600021F080002168143141E80002002AF3D1F4
:1024700000BFA06B10B1A06BFEF754FD204601F029
:1024800009F820684069C0F3801594F842002228BA
:1024900017D1B5B100BF00BF2168143151E8001F4A
:1024A00021F040002168143141E80002002AF3D1F4
:1024B00000BFE06B10B1E06BFEF734FD204600F08A
:1024C000A3FF002070BD70472DE9F84F0446206837
:1024D00005682068C668206847694FF00009CA4649
:1024E00005F00F09B9F1000F0AD105F0200038B14D
:1024F00006F0200020B1204600F0DFFFBDE8F88F95
:10250000B9F1000F7BD007F0010018B906F4907004
:10251000002874D005F0010030B106F4807018B1C5
:10252000606C40F00100606405F0040030B107F019
:10253000010018B1606C40F00200606405F0020018
:1025400030B107F0010018B1606C40F00400606425
:1025500005F0080048B106F0200010B907F00100AE
:1025600018B1606C40F008006064606C002845D0D1
:1025700005F0200028B106F0200010B1204600F040
:102580009CFF20684069C0F3801A606C00F008006E
:1025900010B9BAF1000F2CD0204600F035FF2068AA
:1025A000406900F0400000B300BF00BF2168143153
:1025B00051E8001F21F040002168143141E8000279
:1025C000002AF3D100BFE06B50B17748E16B48635C
:1025D000E06BFEF7D3FC88B1E06B416B88470DE000
:1025E0002046FFF770FF09E009E02046FFF76BFF88
:1025F00004E02046FFF767FF002060647EE7206B61
:10260000012877D105F01000002873D006F01000E3
:102610000028FAD000BF00200090206800680090D9
:1026200020684068009000BF00BF2068406900F04B
:10263000400000285FD0E06B006840681FFA80F817
:10264000B8F1000F55D0A08D404552DDA4F82E8082
:10265000E06B8069202843D000BF00BF21680C31A7
:1026600051E8001F21F4807021680C3141E800021C
:10267000002AF3D100BF00BF00BF2168143151E828
:10268000001F21F001002168143141E80002002AF6
:10269000F3D100BF00BF00BF2168143151E8001F13
:1026A00021F040002168143141E80002002AF3D1F2
:1026B00000BF202084F842000020206300BF00BF3C
:1026C00021680C3151E8001F21F0100021680C3105
:1026D00041E80002002AF3D100BFE06BFEF722FCC4
:1026E00002206063A08DE28D801A81B22046FFF740
:1026F000A4FE03E742E0A08DE18D401A1FFA80F8A6
:10270000E08DD0B3B8F1000F37D000BF00BF216813
:102710000C3151E8001F21F4907021680C3141E820
:102720000002002AF3D100BF00BF00BF21681431AE
:1027300051E8001F21F001002168143141E8000236
:10274000002AF3D100BF202084F84200002020633B
:1027500000BF00BF21680C3151E8001F21F01000BC
:1027600021680C3141E80002002AF3D100BF0220A9
:10277000606341462046FFF760FEBFE605F080003B
:1027800030B106F0800018B1204600F0F7FFB5E642
:1027900005F0400030B106F0400018B1204600F0CE
:1027A00069FEABE600BFA9E6CD32000810B50446CD
:1027B0000CB9012010BDA06900B100E000BF94F881
:1027C000410028B9002084F84000204600F02AF893
:1027D000242084F841002068C06820F4005021685B
:1027E000C860204600F0E8FE2068006920F49040B0
:1027F000216808612068406920F02A00216848614A
:102800002068C06840F400502168C86000206064FF
:10281000202084F8410084F842000020606300BF5B
:10282000C8E7000010B586B004460020029003906F
:102830000490059055492068884250D100BF544803
:10284000806940F48040524988610846806900F4FC
:102850008040019000BF00BF00BF0846806940F083
:10286000040088610846806900F00400019000BF00
:1028700000BF48150290022003900320059002A992
:102880004448FEF737FD4FF480600290002003902B
:10289000049002A93F48FEF72DFD3F483F490860DC
:1028A0000020486000213D4881608021C1600021F6
:1028B000016141618161C161FEF786FC08B1FEF7EB
:1028C00025F800BF3548E063446200BF002211468E
:1028D0002520FEF72BFF2520FEF718FF53E0304997
:1028E000206888424FD100BF2948C06940F40030B9
:1028F0002749C8610846C06900F40030019000BF54
:1029000000BF00BF0846806940F0040088610846A7
:10291000806900F00400019000BF00BF0420029015
:10292000022003900320059002A91A48FEF7E2FC5A
:102930000820029000200390049002A91548FEF799
:10294000D9FC154814301749086000204860002160
:10295000144881608021C160002101614161816171
:10296000C161FEF731FC08B1FDF7D0FF00BF0D4893
:10297000E063446200BF002211462620FEF7D6FE27
:102980002620FEF7C3FE06B010BD0000003801404F
:10299000001002400008014058000240F0000020F2
:1029A000004400403401002070B504460D46164630
:1029B00094F8420020280BD105B10EB9012070BD5A
:1029C0000020206332462946204600F073FEF6E7D9
:1029D0000220F4E7704770472DE9F84F04460E4691
:1029E000174699464FF0000A94F84100202850D12C
:1029F00006B117B90120BDE8F88F002060642120DE
:102A000084F84100FEF70CFE8246A784E784A068A4
:102A1000B0F5805F04D1206910B90025B04602E00E
:102A200035464FF000081EE0534600228021204624
:102A3000CDF8009000F0D2FE20B1202084F84100B3
:102A40000320D8E745B9B8F80000C0F308002168B2
:102A5000486008F1020803E02878216848606D1C8E
:102A6000E08C401EE084E08C0028DDD1534600223B
:102A700040212046CDF8009000F0B0FE20B120208B
:102A800084F841000320B6E7202084F841000020AC
:102A9000B1E70220AFE7704700BFFEE700B585B0A1
:102AA0000020019002900390049000BF10488069BC
:102AB00040F010000E4988610846806900F010005F
:102AC000009000BF00BFC0200190112002900020A4
:102AD00003900320049001A90648FEF70BFC402058
:102AE0000449103108608020086005B000BD000076
:102AF00000100240000C014000B50246002320E017
:102B000002F0800018B180200F49086003E08020A7
:102B10000D49091D0860FDF7F2FE40200A490860D2
:102B2000FDF7EDFE40200849091D0860072B02D182
:102B30008020091F08605006020EFDF7E0FE581CB9
:102B4000C3B2082BDCDB00BD100C014000B58020B7
:102B50000949086040200860FDF7D1FE8020064941
:102B6000091D0860FDF7CBFE40200349091D0860E0
:102B7000FDF7C5FE00BD0000100C014000B580202F
:102B8000064908604020091F0860FDF7B8FE802054
:102B90000249091F0860FDF7B2FE00BD140C014098
:102BA00000B580200C490860FDF7A9FE40200A49C5
:102BB0000860FDF7A4FE08480838006800F08000AF
:102BC00008B1012200E0002240200349091D0860ED
:102BD000FDF795FE104600BD100C014010B5002217
:102BE0004FF480710D48FEF715FD00224FF400717F
:102BF0000A48FEF70FFD022001F0ACF80122110295
:102C00000648FEF707FD022001F0A4F800224FF469
:102C100080710248FEF7FEFC10BD0000000C014070
:102C200010B500224FF480710C48FEF7F3FC01222E
:102C300051020A48FEF7EEFC022001F08BF8012257
:102C400011020648FEF7E6FC022001F083F800229C
:102C50004FF480710148FEF7DDFC10BD000C01400F
:102C600070B50546002400261CE000224FF4807158
:102C70001148FEF7CFFC022001F06CF8012211028E
:102C80000D48FEF7C7FC6006040E0B4808300068CC
:102C900000F4007008B1601CC4B2012001F05AF8C1
:102CA000701CC6B2082EE0DB15B9FFF7B9FF01E0D2
:102CB000FFF794FF204670BD000C014070B504463C
:102CC00000224FF480711748FEF7A4FC002526E08F
:102CD00004F0800028B1012251021248FEF79AFC4C
:102CE00005E000224FF400710E48FEF793FC6006E9
:102CF000040E022001F02EF8012211020948FEF70D
:102D000089FC022001F026F800224FF4807105486A
:102D1000FEF780FC022001F01DF8681CC5B2082DEA
:102D2000D6DB70BD000C014010B5012251020D48E8
:102D3000FEF770FC012211020A48FEF76BFC04202A
:102D400001F008F800224FF400710648FEF762FC1B
:102D5000042000F0FFFF00224FF480710148FEF7CD
:102D600059FC10BD000C014010B500224FF48071D9
:102D70000C48FEF74FFC00224FF400710948FEF7A3
:102D800049FC042000F0E6FF012211020548FEF78D
:102D900041FC012251020348FEF73CFC042000F0F4
:102DA000D9FF10BD000C014010B5002401225102D2
:102DB0001248FEF72FFC012000F0CCFF0122110287
:102DC0000E48FEF727FC012000F0C4FF07E0601C5E
:102DD000C4B2FA2C03DDFFF7C7FF012010BD07487E
:102DE0000830006800F400700028F0D100224FF491
:102DF00080710248FEF70EFC0020EFE7000C014056
:102E000010B5FFF74BFE0121002000F085F80021EE
:102E10004B2000F081F80F2224210B48FDF700FA27
:102E200024220949002000F013F824210748FDF767
:102E3000FFF924220549002000F05CF8002125203C
:102E400000F06AF810BD000090030020B4030020D9
:102E500070B504460D46164624B12978204600F088
:102E60005BF804E032462946012000F06CF870BDA2
:102E700010B586B00446142101A8FDF7FBF906221F
:102E800021461A48FDF7A0F970B300201CE0215C30
:102E9000174A515C01F0010100EB400201AB99546B
:102EA000215C134A515CC1F3400200EB4001491C14
:102EB0005A54215C0E4A515CC1F3800200EB400180
:102EC000891C5A54411CC8B20628E0DB122201A911
:102ED000002000F00FF80021252000F01DF8034825
:102EE00021680160A188818006B010BD2D000020FE
:102EF0002800002070B504460D46164634B12978E6
:102F000004F12502D0B200F007F804E03246294669
:102F1000262000F018F870BD70B505460C46FFF786
:102F200015FE7820FFF7E8FDFFF73AFE2846FFF789
:102F3000E3FDFFF735FE2046FFF7DEFDFFF730FE2D
:102F4000FFF71CFE70BD2DE9F04107460D46164601
:102F5000FFF7FCFD7820FFF7CFFDFFF721FE384695
:102F6000FFF7CAFDFFF71CFE002406E0285DFFF70F
:102F7000C3FDFFF715FE601CC4B2B442F6DBFFF7D9
:102F8000FDFDBDE8F081000010B508200A49086089
:102F900040020A490860401008600021084800F01B
:102FA00011F8012000F0C2FE4FF480500349091DC2
:102FB00008604010086010BD100C0140100801406E
:102FC0004000002070B504460D460DB1C02000E061
:102FD000C22012490870208800124870207888703A
:102FE0002078C870A07800F0070040F01800087141
:102FF000E07848712079402141EAC010617940EAC7
:10300000C100001DA17901F0030108430349487183
:103010000621024800F0A8FE70BD000094040020C4
:1030200000BFFEE700BFFEE770470000F0B50446B2
:103030000E4600270025AA2020700C206070012079
:10304000A070E07046F080002071512E02D0522E08
:1030500018D107E010480168C4F805108088A4F86A
:10306000090010E000250AE00C48405D08B103208B
:1030700001E00948405D691D6054681CC5B2062D19
:10308000F2DB00E000BF00BF0B212046FDF741FC52
:10309000E0720C20F0BD0000080000200E000020AF
:1030A00070B502460024002500231078AA2801D01C
:1030B000002070BD5678481E864201D00020F8E7F7
:1030C0009078012801D00020F3E7D078012801D0C2
:1030D0000020EEE79478D5781379512B02D0522B4B
:1030E0000CD100E00BE00120064E30700648D2F80B
:1030F00005600660B2F80960868000E000BF00BF8E
:103100001846D6E7140000200E00002008B5084934
:103110000968C9084FF47A72B1FBF2F1414300919A
:1031200000BF00BF00994A1E00920029F9D108BDD6
:1031300024000020704710B5FEF778FA10BD00B5E6
:1031400093B0282109A8FDF795F8142104A8FDF7EC
:1031500091F80020009001900290039001200990C6
:1031600000040A9000200B9001200D900220109086
:10317000C10311914FF4E011129109A8FEF762FD0D
:1031800008B1FDF7C3FB0F2004900220059000203A
:1031900006904FF48060079000200890022104A858
:1031A000FEF72CFC08B1FDF7B1FB022000904FF4B4
:1031B000404002906846FEF789FB08B1FDF7A6FB88
:1031C00013B000BD7047000010B50248FFF75DF86E
:1031D00010BD00004C04002010B502681C4B984242
:1031E00008D0B0F1804F05D01A4B984202D01A4B4C
:1031F000984203D122F070024B681A43144B984254
:1032000008D0B0F1804F05D0124B984202D0124B3B
:10321000984203D122F44072CB681A4322F0800313
:103220004C6943EA040202608B68C3620B688362E4
:10323000074B984201D10B69036301234361036982
:1032400003F001031BB1036923F00103036110BD07
:10325000002C0140000400400008004010B500F0C0
:1032600001F810BD1FB500240020009001900290CD
:1032700003900E48007AB8B100200C4908720A4643
:10328000D288D1B2094A1068FFF70AFF04465CB140
:1032900021466846FFF7CAFE04464FF47A73224679
:1032A00069460348FFF798FB1FBD0000840100201A
:1032B000A800002001480068704700003800002086
:1032C00001480068704700003C00002070B50546CA
:1032D0006C6A0020E085E0842046FFF7F4F870BDBA
:1032E00070B506460025746A20684069C0F3C015B1
:1032F00094F84100212805D125B10020E084204622
:1033000000F0C8F820684069C0F3801594F84200C6
:10331000222805D125B10020E085204600F074F870
:10332000606C40F0100060642046FFF7CCF870BD80
:1033300070B505466C6A2868006800F02000002817
:1033400042D1E08500BF00BF21680C3151E8001F69
:1033500021F4807021680C3141E80002002AF3D189
:1033600000BF00BF00BF2168143151E8001F21F0E9
:1033700001002168143141E80002002AF3D100BFA6
:1033800000BF00BF2168143151E8001F21F0400048
:103390002168143141E80002002AF3D100BF202047
:1033A00084F84200206B01280ED100BF00BF2168C5
:1033B0000C3151E8001F21F0100021680C3141E868
:1033C0000002002AF3D100BF00206063206B0128B7
:1033D00004D1A18D2046FFF730F802E02046FFF728
:1033E000F9FA70BD70B505466C6A01206063206B08
:1033F000012805D1A08D41082046FFF71EF802E004
:103400002046FFF7E8FA70BD00BF00BF02680C322B
:1034100052E8002F22F4907102680C3242E8001347
:10342000002BF3D100BF00BF00BF0268143252E886
:10343000002F22F001010268143242E80013002B31
:10344000F3D100BF016B01290ED100BF00BF02689C
:103450000C3252E8002F22F0100102680C3242E8D0
:103460000013002BF3D100BF202180F8421000216F
:103470000163704710B504462068C06820F0400022
:103480002168C860202084F841002046FFF703FB34
:10349000002010BD00BF00BF02680C3252E8002FB0
:1034A00022F0C00102680C3242E80013002BF3D175
:1034B00000BF202180F841107047F8B5044694F809
:1034C0004200222875D1A068B0F5805F0CD1206938
:1034D00050B90025A66A20684068C0F30800308013
:1034E000A06A801CA06215E0A56A0026A068B0F55D
:1034F000805F03D0A06828B9206918B920684068A7
:10350000287004E02068406800F07F002870A06AFE
:10351000401CA062E08D401E80B2E085002846D1AC
:103520002068C06820F020002168C8602068C0685A
:1035300020F480702168C8602068406920F0010094
:1035400021684861202084F8420000206063206BDD
:10355000012826D10020206300BF00BF21680C3164
:1035600051E8001F21F0100021680C3141E80002F1
:10357000002AF3D100BF2068006800F01000102876
:103580000AD100BF002000902068006800902068E9
:103590004068009000BF00BFA18D2046FEF74DFFA0
:1035A00002E02046FFF716FA0020F8BD01E00020F7
:1035B000FBE70220F9E7000070B5044621680969BD
:1035C00021F44051E2681143226811612269A16827
:1035D0001143626941EA02052168C96841F20C623F
:1035E000914329432268D1602168496921F44071DF
:1035F000A2691143226851612D4A2168914202D18A
:10360000FEF7D8FA01E0FEF7C5FA00EBC00101EBC6
:10361000001162689200B1FBF2F100EBC00202EB14
:10362000001263689B00B2FBF3F26423B2FBF3F277
:1036300002EBC20303EB0212A1EB8201322202EB86
:1036400001116422B1FBF2F101F0F00100EBC002C4
:1036500002EB001263689B00B2FBF3F26423B2FB3F
:10366000F3F201EB021200EBC00101EB0011636801
:103670009B00B1FBF3F100EBC00303EB00136668A2
:10368000B600B3FBF6F36426B3FBF6F303EBC30615
:1036900006EB0313A1EB8301322303EB0111642337
:1036A000B1FBF3F101F00F0111442268916070BD8C
:1036B0000038014077B581B0044615460298A062F3
:1036C000A58500206064222084F842002848E16B30
:1036D00088622848E16BC8622748E16B08630020D4
:1036E000E16B486302AE32682368191D2B46E06B1C
:1036F000FDF79EFD00BF002000902068006800904C
:1037000020684068009000BF00BF206970B100BF12
:1037100000BF21680C3151E8001F41F4807021681E
:103720000C3141E80002002AF3D100BF00BF00BF06
:103730002168143151E8001F41F001002168143163
:1037400041E80002002AF3D100BF00BF00BF21689A
:10375000143151E8001F41F040002168143141E864
:103760000002002AF3D100BF002004B070BD0000A9
:1037700031330008E5330008E1320008014691F8D2
:103780004100212828D18868B0F5805F0BD10869F5
:1037900048B90A6A1088C0F308000B685860086AC4
:1037A000801C086205E00B6A581C086218780B68D8
:1037B0005860C88C401E80B2C88458B90868C06878
:1037C00020F080000B68D8600868C06840F04000B6
:1037D0000B68D860002070470220FCE72DE9F84311
:1037E00004460D4617469846089E31E0701C70B39B
:1037F000FDF716FFA0EB0800B04200D816B9032071
:10380000BDE8F8832068C06800F00400F8B1802D9E
:103810001ED0402D1CD020680068C0F3C000B0B19D
:1038200000BF002000902068006800902068406879
:10383000009000BF00BF2046FFF7E6FD082060644F
:1038400000BF002084F8400000BF0120D8E7FFE758
:10385000206800682840A84201D1012000E0002033
:10386000B842C3D00020CBE708B51548006800680F
:10387000C0F30010F8B100BF0020009010480068AD
:10388000006800900E4800684068009000BF00BFCC
:103890000B48FEF7D3FD0B4880880B49096849683F
:1038A000401A0849C88001200872084682880168C9
:1038B0000348FFF779F80248FEF706FE08BD00004E
:1038C0006000002078010020F000002008B51848B2
:1038D000184908604FF4E1304860002115488160C4
:1038E000C16001610C21416100218161C161FEF76C
:1038F0005DFF08B1FDF70AF800BF002000900D48F9
:103900000068006800900B4800684068009000BFA5
:1039100000BF0948828801680648FFF745F8054856
:103920000068C06840F0100002490968C86008BD1E
:1039300000380140600000207801002008B51548DB
:1039400000680068C0F30010F8B100BF00200090CC
:1039500010480068006800900E48006840680090B9
:1039600000BF00BF0B48FEF769FD0B4880880B497C
:1039700009684968401A0849C88001200872084649
:10398000828801680348FFF70FF80248FEF79CFDA4
:1039900008BD0000A80000208401002034010020A0
:1039A00008B51848184908604FF4165048600021BF
:1039B00015488160C16001610C2141610021816174
:1039C000C161FEF7F3FE08B1FCF7A0FF00BF0020C5
:1039D00000900D480068006800900B48006840683F
:1039E000009000BF00BF0948828801680648FEF7C2
:1039F000DBFF05480068C06840F010000249096814
:103A0000C86008BD00440040A800002084010020D8
:103A100000BFFEE702480068C0F3022070470000C4
:103A20000CED00E010B5002804DB0A07130E054A70
:103A3000135406E00A07140E034A00F00F031B1F7D
:103A4000D45410BD00E400E018ED00E01FB50020E4
:103A500001900290039000BF2048406940F00100AF
:103A60001E4948610846406900F00100009000BF0F
:103A700000BF002211460B20FDF758FE0B20FDF77A
:103A800045FE17481749086000211648816001214A
:103A90000173002101754FF46021C16100201149BB
:103AA000486001210F480161FDF782F808B1FCF779
:103AB0002DFF0120019002900720039001A90948E1
:103AC000FCF7C2FF08B1FCF721FF0648FCF72EFF08
:103AD000012205490348FDF765F91FBD00100240AA
:103AE00000240140D80300203400002000B585B038
:103AF0000020019002900390049000BF76488069F6
:103B000040F00400744988610846806900F00400B0
:103B1000009000BF00BF00BF0846806940F0080069
:103B200088610846806900F00800009000BF00BF6F
:103B300000BF0846806940F010008861084680692F
:103B400000F01000009000BF00BF00200390022092
:103B50000490012002904003019001A95F48FDF705
:103B6000C9FB2020019001A95D48FDF7C3FB4FF47C
:103B70000060019001A95A48FDF7BCFB02200190AA
:103B800001A95748FDF7B6FB0120019001A954484F
:103B9000FDF7B0FB8020019001A95248FDF7AAFB78
:103BA0004020019001A94F48FDF7A4FB202001907F
:103BB00001A94C48FDF79EFB4FF48050019001A9EC
:103BC0004848FDF797FB4FF40060019001A9454874
:103BD000FDF790FB4FF40040019001A94148FDF72B
:103BE00089FB0820019001A93D48FDF783FB1020C7
:103BF000019001A93A48FDF77DFB002002900120C9
:103C0000019001A93748FDF775FB4FF40040019082
:103C100001A93248FDF76EFB4FF48070019001A9B5
:103C20003048FDF767FB4FF40040019001A92C4894
:103C3000FDF760FB4FF48040019001A92848FDF793
:103C400059FB4FF40050019001A92548FDF752FBA4
:103C50004FF48050019001A92148FDF74BFB4FF430
:103C60008060019001A91E48FDF744FB4FF480409D
:103C7000019001A91948FDF73DFB10E019480830F3
:103C8000006800F0010050B940F2DC50FDF71EFB67
:103C900014480830006800F0010000B900E0EDE7CA
:103CA00000BF4FF400500D49086120200C4910312D
:103CB000086010200860C001091D0860022008602B
:103CC0000120086080200749143108604020086006
:103CD0002020086005B000BD001002400010014027
:103CE000000C01400008014010B50C480C49086068
:103CF0004FF4807088800020C880087209480A4903
:103D000008604FF4807088800020C8800872FCF73B
:103D1000BDFDFFF7DBFDFFF743FE10BD9001002066
:103D200078010020900200208401002070B5044634
:103D3000FDF776FC06462546681C10B1044800785D
:103D4000054400BFFDF76CFC801BA842FAD370BD90
:103D50002000002000EB8002D10000BF00BF0A1E3F
:103D6000A1F10101FAD1704770B504460D464FF438
:103D70007A732A4621460248FEF72EFE70BD0000E7
:103D8000A8000020FDF75EFCFFF7D9F9FFF7AEFEB3
:103D9000FCF788FBFFF734F8FFF758FEFFF7A4FFA6
:103DA000FFF7F2F8FCF716FC46E0FFF789FA234923
:103DB0000968884208D0FFF783FA20490860FCF7B9
:103DC0003BFC1F48FFF754F8FFF774FA04461D4AFE
:103DD0001D49FCF7BFFCFFF741FA1C480078012899
:103DE00004D002280DD0032821D116E0184802780B
:103DF0000F211848FCF714FA0F211648FFF7B4FFFB
:103E000016E0134802780F211248FCF709FA0F2236
:103E100010490A20FCF7ACFB0AE00F210D48FCF723
:103E200007FA0F220B490A20FCF76EFB00E000BFE7
:103E300000BF002005490870B7E70000040000201B
:103E4000080000200E0000201400002000000020C8
:103E500001000020500000200203040506070809A5
:103E60000A0B0C0D0E0F10100102020304050607C9
:103E700008090A0B0C0D0E0F1010010200000000C3
:103E8000000000000102030406070809000000000A
:103E900001020304B43E00080000002050000000AE
:103EA00028010008043F000850000020E80A000034
:103EB00044010008001100000000000000000000A4
:103EC00000000000000000000000000000000000F2
:103ED000100000000100000000127A00000201043E
:103EE00006000000000000000000000000000000CC
:103EF00000000000000002170000000000000000A9
:043F000000000000BD
:04000005080000ED02
:00000001FF
