:020000040800F2
:10000000700A002089010008DF2200081F20000874
:10001000DB220008A5040008792800080000000081
:100020000000000000000000000000000D23000898
:100030000505000800000000E32200080F23000867
:10004000A3010008A3010008A3010008A301000800
:10005000A3010008A3010008A3010008A3010008F0
:10006000A3010008A3010008A3010008A9040008D7
:10007000A3010008A3010008A3010008B9040008B7
:10008000C9040008A3010008A3010008A301000897
:10009000A3010008A3010008A3010008A3010008B0
:1000A000A3010008A3010008A3010008A3010008A0
:1000B000A3010008A3010008A3010008A301000890
:1000C000A3010008A3010008A3010008A301000880
:1000D000A3010008B127000815280008A3010008A3
:1000E000A3010008A3010008A301000800F002F822
:1000F00000F03AF80AA090E8000C82448344AAF188
:100100000107DA4501D100F02FF8AFF2090EBAE885
:100110000F0013F0010F18BFFB1A43F0010318473B
:100120007C2A00009C2A0000103A24BF78C878C1BD
:10013000FAD8520724BF30C830C144BF04680C60ED
:10014000704700000023002400250026103A28BF35
:1001500078C1FBD8520728BF30C148BF0B60704739
:100160001FB51FBD10B510BD00F0AEF81146FFF76A
:10017000F7FF02F0DFFC00F0CCF803B4FFF7F2FF6A
:1001800003BC00F0D3F80000094880470948004745
:10019000FEE7FEE7FEE7FEE7FEE7FEE7FEE7FEE737
:1001A000FEE7FEE704480549054A064B7047000094
:1001B0009D230008ED00000870040020700A002054
:1001C000700600207006002040EA010310B59B076E
:1001D0000FD1042A0DD310C808C9121F9C42F8D0B1
:1001E00020BA19BA884201D9012010BD4FF0FF3062
:1001F00010BD1AB1D30703D0521C07E0002010BD78
:1002000010F8013B11F8014B1B1B07D110F8013B03
:1002100011F8014B1B1B01D1921EF1D1184610BDE4
:1002200002F0FF0343EA032242EA024200F02CB844
:100230004FF0000200B5134694469646203922BF7F
:10024000A0E80C50A0E80C50B1F12001BFF4F7AFCA
:10025000090728BFA0E80C5048BF0CC05DF804EBAC
:10026000890028BF40F8042B08BF704748BF20F81A
:10027000022B11F0804F18BF00F8012B7047704718
:10028000704770474FF000020429C0F0128010F050
:10029000030C3FF4CFAFCCF1040CBCF1020F18BF3C
:1002A00000F8012BA8BF20F8022BA1EB0C01FFF7EF
:1002B000C1BF5FEAC17C24BF00F8012B00F8012B0D
:1002C00048BF00F8012B7047754600F02BF8AE468A
:1002D00005006946534620F00700854618B020B552
:1002E000FFF760FFBDE820404FF000064FF0000729
:1002F0004FF000084FF0000B21F00701AC46ACE8CE
:10030000C009ACE8C009ACE8C009ACE8C0098D463A
:10031000704710B50446AFF300802046BDE810409A
:10032000FFF72BBF00487047100400200149182038
:10033000ABBEFEE726000200704770B504460025FC
:100340002068806800F0010018B32068806820F001
:1003500001002168886000F041FF054613E000F0CD
:100360003DFF401B02280ED92068806800F0010084
:1003700048B1A06A40F01000A062E06A40F00100BD
:10038000E062012070BD2068806800F00100002854
:10039000E5D10020F6E770B505466C6AA06A00F06A
:1003A0005000E0B9A06A40F40070A0622068806844
:1003B00000F46020B0F5602F0DD1207B58B9A06A01
:1003C00020F48070A062A06A00F4805018B9A06A7E
:1003D00040F00100A062204600F0DEF903E0206A50
:1003E000016B2846884770BD70B505466C6AA06AE7
:1003F00040F04000A062E06A40F00400E062204665
:1004000000F0CCF970BD70B50446656A284600F06E
:10041000C4F970BD38B5044600250020009020685E
:10042000806800F0010078BB2068806840F001001F
:1004300021688860194800681949B0FBF1F0009004
:1004400002E00098401E009000980028F9D100F0CA
:10045000C5FE054619E000F0C1FE401B022814D974
:100460002068806800F0010078B9A06A40F01000B0
:10047000A062E06A40F00100E06200BF002084F862
:10048000240000BF012038BD05E02068806800F02E
:1004900001000028DFD00020F5E700001400002054
:1004A00040420F0000BFFEE710B5024800F0B6FB67
:1004B00010BD0000CC03002010B5024800F0AEFBD8
:1004C00010BD0000B400002010B5024800F0A6FBEB
:1004D00010BD0000F800002030B590F84050012415
:1004E000AC40C56B6C60046863604468102C04D138
:1004F0000468A2600468E16003E00468A160046825
:10050000E26030BD7047002001E0411CC8B23228D3
:10051000FBDB704772B600BFFEE70000F8B504468B
:1005200000260020009000BF94F82400012801D18B
:100530000220F8BD012084F8240000BF2046FFF708
:10054000FCFE06462046FFF765FF0646002E69D1F1
:10055000A06A20F4885040F00200A062022000F05F
:1005600015FF34490968B1FBF0F04000009002E04B
:100570000098401E009000980028F9D120688068FB
:1005800040F008002168886000F028FE054616E06B
:1005900000F024FE401B0A2811D92068806800F072
:1005A000080060B1A06A20F0020040F01000A062D4
:1005B00000BF002084F8240000BF0120B9E72068B4
:1005C000806800F008000028E2D12068806840F0D0
:1005D00004002168886000F001FE054616E000F086
:1005E000FDFD401B0A2811D92068806800F0040036
:1005F00060B1A06A20F0020040F01000A06200BFCD
:10060000002084F8240000BF012092E72068806861
:1006100000F004000028E2D1A06A20F0020040F0BF
:100620000100A06200BF002084F8240000BF304613
:100630007FE700001400002038B5024600230020A8
:10064000009000BF92F82400012801D1022038BD9B
:10065000012082F8240000BF4868072812D21068E1
:10066000406B0C79641E04EB84051F24AC40A0434E
:100670000D796D1E05EB85050C68AC4020431468B0
:10068000606327E048680D2812D21068006B0C796F
:10069000E41F04EB84051F24AC40A0430D79ED1F3B
:1006A00005EB85050C68AC4020431468206311E01D
:1006B0001068C06A0C790D3C04EB84051F24AC4023
:1006C000A0430D790D3D05EB85050C68AC4020433A
:1006D0001468E06208680A2812D31068C0680C78B1
:1006E0000A3C04EB44050724AC40A0430D780A3DC6
:1006F00005EB45058C68AC4020431468E0600FE0D2
:10070000106800690C7804EB44050724AC40A04352
:100710000D7805EB45058C68AC40204314682061DA
:100720000868102802D00868112827D1174C1068D3
:10073000A0421ED11068806800F40000F0B9106873
:10074000806840F400001468A0600868102815D183
:100750000F4800680F4CB0FBF4F000EB8000400045
:10076000009002E00098401E009000980028F9D107
:1007700004E0906A40F020009062012300BF002056
:1007800082F8240000BF184661E700000024014001
:100790001400002040420F0070477047704700006F
:1007A0002DE9F0410446002700250026A84614B98B
:1007B0000120BDE8F081A06810B1207D00B100BF2C
:1007C000A06A30B90020E06284F82400204600F0DE
:1007D00089F82046FFF7B1FD0746A06A00F0100037
:1007E000002873D1002F71D1A06A20F4885040F006
:1007F0000200A062E16960680843217B40EA410091
:100800000643A068B0F5807F02D0A068012802D11D
:100810004FF4807000E000200543207D012811D1B5
:10082000207B38B9A069401E4FF4006141EA403096
:10083000054307E0A06A40F02000A062E06A40F0B3
:100840000100E0622068406820F469402843216884
:1008500048602068806821490840304321688860EA
:10086000A068B0F5807F02D0A068012802D14FF4C3
:10087000807000E00020B0F5807F03D1208A401E08
:100880004FEA00582068C06A20F4700040EA08006F
:100890002168C8622068806811490840B04208D1C8
:1008A0000020E062A06A20F0020040F00100A06297
:1008B00011E0A06A20F0020040F01000A062E06A9F
:1008C00040F00100E062012705E0FFE7A06A40F088
:1008D0001000A062012738466BE70000FDF7E1FF3A
:1008E000FE0E1FFF10B586B0044600200290039054
:1008F000049005902249206888423FD100BF2148DA
:10090000806940F400701F4988610846806900F4DE
:100910000070019000BF00BF00BF0846806940F032
:10092000040088610846806900F00400019000BF5F
:1009300000BF022002900320039002A9124800F099
:10094000BDFA124812490860002048600021104892
:1009500081608021C16049000161890041610021FD
:1009600081614FF48051C16100F026FA08B1FFF7B0
:10097000D1FD00BF06482062446200BF06B010BD32
:10098000002401400010024000080140080002401D
:10099000CC0300202DE9F04104460D461646002701
:1009A00057492068884203D056492068884205D1BB
:1009B0005348001D006800F4702000E0002000286B
:1009C0007ED100BF94F82400012802D10220BDE8A6
:1009D000F081012084F8240000BF2046FFF71AFDB3
:1009E0000746002F6DD1A06A40F60161884340F4AC
:1009F0008070A06243492068884209D14048001DA8
:100A0000006800F4702008B9012002E0002000E036
:100A1000012078B1A06A20F48010A06220684068AC
:100A200000F4806000B3A06A20F4005040F48050CD
:100A3000A06219E0A06A40F48010A06230492068EA
:100A4000884203D02F492068884205D12C48001DD8
:100A5000006800F4806000E0002028B1A06A20F463
:100A6000005040F48050A062A06A00F4805020B191
:100A7000E06A20F00600E06201E00020E06200BFD2
:100A8000002084F8240000BF1F48216A88621F48A4
:100A9000216AC8621E48216A08636FF0020021685B
:100AA00008602068806840F480702168886022684F
:100AB00002F14C0133462A46206A00F0B1F901E008
:100AC0001AE014E02068806800F46020B0F5602F20
:100AD00006D12068806840F4A000216888600CE09E
:100AE0002068806840F480102168886005E000BFBD
:100AF000002084F8240000E00127384667E7000062
:100B00000024014000280140970300080704000862
:100B1000E90300080146002291F82100022808D0CC
:100B20000420886300BF002081F8200000BF01205E
:100B300070470868006820F00E000B6818600868AD
:100B4000006820F001000B68186091F84030012027
:100B50009840CB6B5860012081F8210000BF002035
:100B600081F8200000BF1046E2E7000070B504469F
:100B7000002594F82100022803D00420A063012559
:100B800048E02068006820F00E00216808602068B6
:100B9000006820F00100216808601F492068884231
:100BA00001D1012026E01C4914312068884201D17E
:100BB00010201FE0184928312068884201D1801593
:100BC00018E015493C312068884201D1801411E0B9
:100BD000114950312068884202D14FF4803009E039
:100BE0000D4964312068884202D14FF4801001E041
:100BF0004FF08070084908394860012084F82100CE
:100C000000BF002084F8200000BF606B10B12046B8
:100C1000616B8847284670BD0800024070B50446E5
:100C2000E06B05682068066894F84010042088404E
:100C30002840002846D006F00400002842D0206852
:100C4000006800F0200028B92068006820F0040047
:100C50002168086057492068884201D1042027E0B4
:100C6000544914312068884201D1402020E0514984
:100C700028312068884201D1001519E04D493C31E6
:100C80002068884202D14FF4804011E04949503138
:100C90002068884202D14FF4802009E04549643140
:100CA0002068884202D14FF4800001E04FF080605C
:100CB000404908394860E06A00287AD02046E16A55
:100CC000884776E094F84010022088402840A0B37E
:100CD00006F0020088B32068006800F0200040B9E8
:100CE0002068006820F00A0021680860012084F86C
:100CF000210030492068884201D1022028E02D4996
:100D000014312068884201D1202021E0294928316E
:100D10002068884201D140151AE026493C312068FC
:100D2000884202D14FF4005012E02249503120682D
:100D3000884203D14FF400300AE017E01D496431C6
:100D40002068884202D14FF4001001E04FF000709B
:100D500018490839486000BF002084F8200000BF0F
:100D6000A06A30B32046A16A884722E094F8401078
:100D7000082088402840E0B106F00800C8B120688B
:100D8000006820F00E002168086094F840100120EF
:100D90008840E16B48600120A06384F8210000BF17
:100DA000002084F8200000BF206B10B12046216B8A
:100DB000884770BD080002400146002209B90120A1
:100DC0007047164B0868C01A1423B0FBF3F080007C
:100DD000086412480838C863022081F821000868B6
:100DE000026843F6F0708243D1E901031843CB68EF
:100DF00018430B6918434B6918438B691843CB6937
:100E0000184302430868026000208863012081F8CB
:100E10002100002081F8200000BFD1E70800024037
:100E20002DE9F04104460D4616461F464FF00008D6
:100E300000BF94F82000012802D10220BDE8F08113
:100E4000012084F8200000BF94F8210001282CD153
:100E5000022084F821000020A0632068006820F0B0
:100E60000100216808603B46324629462046FFF7CC
:100E700033FBE06A30B12068006840F00E00216862
:100E800008600BE02068006820F00400216808601A
:100E90002068006840F00A00216808602068006847
:100EA00040F001002168086006E000BF002084F8DF
:100EB000200000BF4FF002084046BFE72DE9F84789
:100EC0000346002294466EE14FF0010808FA02F44E
:100ED000D1F8008008EA0400A0427DD1DFF8DCA24E
:100EE000D1F80480A8EB0A09D0453AD014DCB8F157
:100EF000030F50D009DCB8F1000F31D0B8F1010F69
:100F00001CD0B8F1020F49D120E0B8F1110F18D070
:100F1000B8F1120F42D11EE0B9F5881F25D006DCCA
:100F2000B9F5803F20D0B9F5801F37D11AE0B9F567
:100F3000001F18D0B9F5041F30D117E0D1F80CC04C
:100F40002DE0D1F80C8008F1040C28E0D1F80C80D9
:100F500008F1080C23E0D1F80C8008F10C0C1EE01D
:100F600000BF00BF00BF00BF00BF00BFD1F80880B6
:100F7000B8F1000F02D14FF0040C0BE0D1F808805B
:100F8000B8F1010F03D14FF0080C1C6102E04FF0E3
:100F9000080C5C6103E04FF0000C00E000BF00BFF4
:100FA000FF2801D8984601E003F104084646FF28CF
:100FB00002D84FEA820803E0A2F108084FEA880845
:100FC0004746D6F800804FF00F0909FA07F928EADA
:100FD00009080CFA07F900E088E048EA0908C6F8B1
:100FE0000080D1F8048008F08058B8F1805F7DD18E
:100FF00000BFDFF8CC81D8F8188048F00108DFF88E
:10100000C091C9F81880C846D8F8188008F00108BF
:10101000CDF8008000BF00BF4FEAB9384FEA92090F
:1010200058F829504FEA82784FEA18794FF00F08A4
:1010300008FA09F825EA0805DFF88881434502D156
:101040004FF0000816E0DFF88081434502D14FF0F1
:1010500001080FE0DFF87481434502D14FF0020828
:1010600008E0DFF86C81434502D14FF0030801E04E
:101070004FF004084FEA82794FEA197908FA09F823
:1010800048EA0505DFF84C814FEA920948F82950F3
:10109000D1F8048008F48018B8F5801F0AD1DFF871
:1010A0003881D8F8008048EA0008DFF82C91C9F8A8
:1010B000008009E0DFF82081D8F8008028EA0008E5
:1010C000DFF81491C9F80080D1F8048008F4001802
:1010D000B8F5001F10D1DFF8008108F10408D8F836
:1010E000008048EA0008DFF8F09000E05AE009F1DB
:1010F0000409C9F800800DE0DFF8DC8008F104087D
:10110000D8F8008028EA0008DFF8CC9009F104093B
:10111000C9F80080D1F8048008F40038B8F5003F21
:101120000ED1DFF8B480A8F10408D8F8008048EAAE
:101130000008DFF8A490A9F10409C9F800800DE0C7
:10114000DFF89480A8F10408D8F8008028EA0008A5
:10115000DFF88490A9F10409C9F80080D1F804806F
:1011600008F48038B8F5803F0ED1DFF86C80A8F124
:101170000808D8F8008048EA0008DFF85C90A9F178
:101180000809C9F800800DE0DFF84C80A8F10808D4
:10119000D8F8008028EA0008DFF83C90A9F1080997
:1011A000C9F80080521CD1F8008028FA02F8B8F182
:1011B000000F7FF489AEBDE8F88700000000111031
:1011C0000010024000080140000C014000100140E6
:1011D0000014014008000140080401400148006873
:1011E00070470000080000200348006803490978A0
:1011F00008440149086070470800002010000020E2
:1012000010B50848006840F0100006490860032047
:1012100000F0A8F80F2000F007F800F02BF80020ED
:1012200010BD00000020024070B504460E48007852
:101230004FF47A71B1FBF0F00C490968B1FBF0F59D
:10124000284600F0FFFC08B1012070BD102C07D229
:1012500000222146501E00F047F80548046001E0D6
:101260000120F2E70020F0E7100000201400002029
:101270000C00002008B500BF1148806940F0010053
:101280000F4988610846806900F00100009000BFA6
:1012900000BF00BF0846C06940F08050C8610846E2
:1012A000C06900F08050009000BF00BF00BF05493A
:1012B000486820F0E06040F00070486000BF08BD62
:1012C000001002400000014001460846002809DBEA
:1012D00000F01F0301229A4043099B0003F1E02321
:1012E000C3F8002100BF70472DE9F05F80460D462E
:1012F0001646002701F0C2FA074639462A46334609
:1013000001F00700C0F1070ABAF1040F02D94FF04B
:10131000040A01E0C0F1070AD14600F1040ABAF15B
:10132000070F02D24FF0000A01E0A0F1030AD446F1
:101330004FF0010A0AFA09FAAAF1010A0AEA020AB6
:101340000AFA0CFA4FF0010B0BFA0CFBABF1010B94
:101350000BEA030B4AEA0B042146404601F096FAD9
:10136000BDE8F09F00BF00F00702064B19684FF67A
:10137000FF031940044B0B4343EA0221014B196060
:1013800000BF70470CED00E00000FA052DE9F047C2
:1013900006464FF00008002500270024A146012E34
:1013A00031D0022E56D0102E5FD1324844680068EA
:1013B00000F0807008B33048C4F38341475C04F404
:1013C000803078B12B484068C0F340402B4911F879
:1013D000008004F4803040B12948B0FBF8F000FBF5
:1013E00007F502E0274807FB00F52248406800F4B3
:1013F0008000B0F5800F01D1A94603E06800032109
:10140000B0FBF1F932E01B48046A04F44070B0F517
:10141000807F05D104F0020010B14FF4004918E0BC
:1014200004F44070B0F5007F07D11248406A00F024
:10143000020010B149F640490BE004F44070B0F5E9
:10144000407F06D10B48006800F4003008B14FF22D
:1014500024490BE000F07CF906494968C1F3813169
:10146000491C4900B0FBF1F900E000BF00BF48464D
:10147000BDE8F08700100240722B0008822B0008A4
:1014800000127A0000093D00F8B504460026002548
:10149000207800F0010000286BD000274348C06985
:1014A00000F0805070B900BF4048C06940F08050E3
:1014B0003E49C8610846C06900F08050009000BFF6
:1014C00000BF01273A48006800F48070B0B938487E
:1014D000006840F4807036490860FFF77FFE0646DA
:1014E00006E0FFF77BFE801B642801D90320F8BDCE
:1014F0002F48006800F480700028F2D02B48006A62
:1015000000F440752DB3A08800F44070A84220D0AC
:101510002648006A20F44075012026490860002012
:1015200008602248056205F0010090B1FFF756FE01
:10153000064608E0FFF752FE801B41F288318842E0
:1015400001D90320D3E71948006A00F002000028FF
:10155000F0D01648006A20F44070616808431349CF
:101560000862012F04D10846C06920F08050C8618C
:1015700000BF207800F00200022807D10B48406825
:1015800020F44040A168084308494860207800F0F2
:101590001000102807D10548406820F48000E16859
:1015A0000843024948600020A1E700000010024003
:1015B000007000404004424270B504460D460CB92C
:1015C000012070BD5A48006800F00700A8420ED202
:1015D0005748006820F0070028435549086008462E
:1015E000006800F00700A84201D00120E9E7207858
:1015F00000F0020002281DD1207800F00400042829
:1016000005D14C48406840F4E0604A494860207881
:1016100000F00800082805D14648406840F46050B2
:10162000444948604348406820F0F000A1680843FE
:1016300040494860207800F0010078B360680128D4
:1016400006D13C48006800F4003090B90120B8E7AA
:101650006068022806D13748006800F0007040B981
:101660000120AEE73348006800F0020008B901200D
:10167000A7E73048406820F00300616808432D491F
:101680004860FFF7ABFD064609E0FFF7A7FD801BAA
:1016900041F28831884202D9032092E707E02548C9
:1016A000406800F00C006168B0EB810FEDD120487C
:1016B000006800F00700A8420ED91D48006820F01D
:1016C000070028431A4908600846006800F0070030
:1016D000A84201D0012074E7207800F0040004281B
:1016E00007D11448406820F4E060E16808431149DC
:1016F0004860207800F00800082808D10D484068AC
:1017000020F46050216940EAC1000A49486000F0B5
:101710002FF808494968C1F30311074A515CC840D2
:101720000649086006480068FFF77EFD002048E78C
:101730000020024000100240842B0008140000200A
:101740000C000020014800687047000014000020D1
:1017500000B5FFF7F7FF04494968C1F3C221034A06
:10176000515CC84000BD000000100240942B0008EE
:1017700070B500210022002400230020134D696869
:1017800001F00C05F5B1042D02D0082D19D101E0AE
:101790000F4819E00F4DC1F38346AB5D01F480356E
:1017A00055B10A4D6D68C5F340450B4E725D084D4D
:1017B0005D43B5FBF2F402E0084D03FB05F420465F
:1017C00002E000BF024800BF00BF70BD0010024031
:1017D00000127A00602B0008702B000800093D0001
:1017E000F8B504460CB90120F8BD207800F00100DE
:1017F000002878D0F848406800F00C0004280CD08D
:10180000F548406800F00C00082811D1F248406803
:1018100000F48030B0F5803F0AD1EF48006800F452
:10182000003000285FD0606800285CD10120DBE731
:1018300000BF6068B0F5803F06D1E748006840F41B
:101840008030E549086028E0606858B9E2480068DF
:1018500020F48030E04908600846006820F48020C9
:1018600008601AE06068B0F5A02F0BD1DA48006874
:1018700040F48020D84908600846006840F4803071
:1018800008600AE0D448006820F48030D24908603B
:101890000846006820F48020086000BF606888B1B6
:1018A000FFF79CFC054606E0FFF798FC401B642808
:1018B00001D9032098E7C848006800F400300028E8
:1018C000F2D010E0FFF78AFC054606E0FFF786FC41
:1018D000401B642801D9032086E7BF48006800F454
:1018E00000300028F2D1207800F00200022857D101
:1018F000B948406800F00C0050B1B748406800F0AB
:101900000C00082818D1B448406800F4803098B919
:10191000B148006800F0020020B12069012801D020
:10192000012061E7AC48006820F0F800616940EAF6
:10193000C100A949086033E02069E8B10120A74946
:101940000860FFF74BFC054606E0FFF747FC401B2D
:10195000022801D9032047E79F48006800F00200F1
:101960000028F2D09C48006820F0F800616940EA45
:10197000C1009949086013E0002098490860FFF70A
:101980002DFC054606E0FFF729FC401B022801D983
:10199000032029E79048006800F002000028F2D1F7
:1019A000207800F0080008282DD1A069B8B10120E6
:1019B0008B490860FFF712FC054606E0FFF70EFCB6
:1019C000401B022801D903200EE78348406A00F03B
:1019D00002000028F2D0012000F084FC13E0002077
:1019E0007F490860FFF7FAFB054606E0FFF7F6FBC4
:1019F000401B022801D90320F6E67748406A00F030
:101A000002000028F2D1207800F00400042873D1ED
:101A100000277148C06900F0805070B900BF6E485F
:101A2000C06940F080506C49C8610846C06900F048
:101A30008050009000BF00BF01276A48006800F492
:101A40008070B0B96748006840F4807065490860EC
:101A5000FFF7C4FB054606E0FFF7C0FB401B642808
:101A600001D90320C0E65F48006800F480700028B8
:101A7000F2D000BFE068012806D15748006A40F064
:101A800001005549086227E0E06858B95248006AE9
:101A900020F00100504908620846006A20F0040066
:101AA000086219E0E06805280BD14B48006A40F055
:101AB0000400494908620846006A40F001000862D3
:101AC0000AE04548006A20F00100434908620846E0
:101AD000006A20F00400086200BFE068A0B1FFF7D0
:101AE0007DFB054609E0FFF779FB401B41F2883199
:101AF000884202D9032077E622E03748006A00F0E6
:101B000002000028EFD012E0FFF768FB054608E06E
:101B1000FFF764FB401B41F28831884201D9032062
:101B200062E62D48006A00F002000028F0D1012F83
:101B300005D12948C06920F080502749C86100BFFD
:101B4000E069C8B32448406800F00C00082860D061
:101B5000E069022848D1002020490866FFF73EFBD3
:101B6000054606E0FFF73AFB401B022801D9032097
:101B70003AE61948006800F000700028F2D1206AA7
:101B8000B0F5803F07D11448406820F40030A168C8
:101B9000084311494860D4E9080108430E494968DF
:101BA00021F4741108430C49486001200B49086670
:101BB000FFF714FB054607E03DE0FFF70FFB401B76
:101BC000022801D903200FE60348006800F00070E6
:101BD0000028F2D02FE00000001002400000424236
:101BE0008004424200700040002014490866FFF75C
:101BF000F5FA054606E0FFF7F1FA401B022801D985
:101C00000320F1E50E48006800F000700028F2D1D2
:101C100011E0E069012800D1E6E50948466806F4CC
:101C20008031206A814204D106F47011606A8142D9
:101C300001D00120D8E50020D6E500000000424296
:101C40000010024070B504462546681EB0F1807F42
:101C500001D301200FE0681E4FF0E02148610F2101
:101C60004FF0FF3000F012FE00204FF0E0218861BD
:101C700007200861002070BD704770B5044600253C
:101C800020684069C0F3C01594F84100212817D19D
:101C9000B5B100BF00BF2168143151E8001F21F029
:101CA00080002168143141E80002002AF3D100BF0E
:101CB000A06B10B1A06BFEF72DFF204600F053FC87
:101CC00020684069C0F3801594F84200222817D19B
:101CD000B5B100BF00BF2168143151E8001F21F0E9
:101CE00040002168143141E80002002AF3D100BF0E
:101CF000E06B10B1E06BFEF70DFF204600F0EDFB4E
:101D0000002070BD704700002DE9F84F04462068A0
:101D100005682068C668206847694FF00009CA4610
:101D200005F00F09B9F1000F0AD105F0200038B114
:101D300006F0200020B1204600F028FCBDE8F88F16
:101D4000B9F1000F7BD007F0010018B906F49070CC
:101D5000002874D005F0010030B106F4807018B18D
:101D6000606C40F00100606405F0040030B107F0E1
:101D7000010018B1606C40F00200606405F00200E0
:101D800030B107F0010018B1606C40F004006064ED
:101D900005F0080048B106F0200010B907F0010076
:101DA00018B1606C40F008006064606C002845D099
:101DB00005F0200028B106F0200010B1204600F008
:101DC000E5FB20684069C0F3801A606C00F00800F1
:101DD00010B9BAF1000F2CD0204600F07EFB20682D
:101DE000406900F0400000B300BF00BF216814311B
:101DF00051E8001F21F040002168143141E8000241
:101E0000002AF3D100BFE06B50B17748E16B486323
:101E1000E06BFEF7ABFE88B1E06B416B88470DE0ED
:101E20002046FFF76FFF09E009E02046FFF76AFF51
:101E300004E02046FFF766FF002060647EE7206B29
:101E4000012877D105F01000002873D006F01000AB
:101E50000028FAD000BF00200090206800680090A1
:101E600020684068009000BF00BF2068406900F013
:101E7000400000285FD0E06B006840681FFA80F8DF
:101E8000B8F1000F55D0A08D404552DDA4F82E804A
:101E9000E06B8069202843D000BF00BF21680C316F
:101EA00051E8001F21F4807021680C3141E80002E4
:101EB000002AF3D100BF00BF00BF2168143151E8F0
:101EC000001F21F001002168143141E80002002ABE
:101ED000F3D100BF00BF00BF2168143151E8001FDB
:101EE00021F040002168143141E80002002AF3D1BA
:101EF00000BF202084F842000020206300BF00BF04
:101F000021680C3151E8001F21F0100021680C31CC
:101F100041E80002002AF3D100BFE06BFEF7FAFDB2
:101F200002206063A08DE28D801A81B22046FFF707
:101F3000A3FE03E742E0A08DE18D401A1FFA80F86E
:101F4000E08DD0B3B8F1000F37D000BF00BF2168DB
:101F50000C3151E8001F21F4907021680C3141E8E8
:101F60000002002AF3D100BF00BF00BF2168143176
:101F700051E8001F21F001002168143141E80002FE
:101F8000002AF3D100BF202084F842000020206303
:101F900000BF00BF21680C3151E8001F21F0100084
:101FA00021680C3141E80002002AF3D100BF022071
:101FB000606341462046FFF75FFEBFE605F0800004
:101FC00030B106F0800018B1204600F0C1FBB5E644
:101FD00005F0400030B106F0400018B1204600F096
:101FE000B2FAABE600BFA9E69F23000870B504462D
:101FF0000D46164694F8420020280BD105B10EB9C3
:10200000012070BD0020206332462946204600F0A2
:102010003BFBF6E70220F4E770477047704700BFCC
:10202000FEE7000000B585B000200190029003900B
:10203000049000BF1048806940F010000E4988618C
:102040000846806900F01000009000BF00BFC0206B
:10205000019011200290002003900320049001A918
:102060000648FEF72BFF402004491031086080200D
:10207000086005B000BD000000100240000C0140E7
:1020800000B50246002320E002F0800018B1802055
:102090000F49086003E080200D49091D0860FEF724
:1020A00032FA40200A490860FEF72DFA402008491C
:1020B000091D0860072B02D18020091F0860500607
:1020C000020EFEF720FA581CC3B2082BDCDB00BD61
:1020D000100C014000B580200949086040200860CC
:1020E000FEF711FA80200649091D0860FEF70BFA79
:1020F00040200349091D0860FEF705FA00BD0000F5
:10210000100C014000B58020064908604020091FDE
:102110000860FEF7F8F980200249091F0860FEF701
:10212000F2F900BD140C014000B580200C49086094
:10213000FEF7E9F940200A490860FEF7E4F908488B
:102140000838006800F0800008B1012200E0002299
:1021500040200349091D0860FEF7D5F9104600BD6F
:10216000100C014010B5FFF75DFF0121002000F0C9
:102170007DF800214B2000F079F80F2224210B4834
:10218000FEF74EF824220949002000F013F801223E
:1021900024210748FEF744F824220549002000F0D6
:1021A00053F80021252000F061F810BD54030020F1
:1021B0007803002070B504460D46164624B12978F0
:1021C000204600F053F804E032462946012000F092
:1021D00064F870BD10B586B00446142101A8FEF75E
:1021E00027F8062221461748FDF7EEFF40B30020EE
:1021F00016E0215C01F0010100EB400201AB9954B3
:10220000215CC1F3400200EB4001491C5A54215C9F
:10221000C1F3800200EB4001891C5A54411CC8B232
:102220000628E6DB122201A9002000F00DF80021AB
:10223000252000F01BF8034821680160A1888180F7
:1022400006B010BD1800002070B504460D461646B5
:1022500034B1297804F12502D0B200F007F804E087
:1022600032462946262000F018F870BD70B50546A4
:102270000C46FFF72FFF7820FFF702FFFFF754FF10
:102280002846FFF7FDFEFFF74FFF2046FFF7F8FE59
:10229000FFF74AFFFFF736FF70BD2DE9F041074613
:1022A0000D461646FFF716FF7820FFF7E9FEFFF709
:1022B0003BFF3846FFF7E4FEFFF736FF002406E059
:1022C000285DFFF7DDFEFFF72FFF601CC4B2B442AC
:1022D000F6DBFFF717FFBDE8F08100BFFEE700BFA8
:1022E000FEE7704708B508490968C9084FF47A72D3
:1022F000B1FBF2F14143009100BF00BF00994A1EBB
:1023000000920029F9D108BD14000020704710B5D3
:10231000FEF76AFF10BD00B593B0282109A8FDF7AC
:1023200087FF142104A8FDF783FF0020009001908F
:10233000029003900120099000040A9000200B9065
:1023400001200D9002201090C10311914FF4E01173
:10235000129109A8FFF744FA08B1FEF7DBF80F2045
:10236000049002200590002006904FF480600790B2
:1023700000200890022104A8FFF71EF908B1FEF71B
:10238000C9F8022000904FF4404002906846FFF7E1
:102390007BF808B1FEF7BEF813B000BD704770B50A
:1023A00005466C6A0020E085E0842046FFF7AAFC21
:1023B00070BD70B506460025746A20684069C0F398
:1023C000C01594F84100212805D125B10020E084F2
:1023D000204600F0C8F820684069C0F3801594F8E2
:1023E0004200222805D125B10020E085204600F0DA
:1023F00074F8606C40F0100060642046FFF782FCC7
:1024000070BD70B505466C6A2868006800F0200051
:10241000002842D1E08500BF00BF21680C3151E89F
:10242000001F21F4807021680C3141E80002002A6D
:10243000F3D100BF00BF00BF2168143151E8001F75
:1024400021F001002168143141E80002002AF3D193
:1024500000BF00BF00BF2168143151E8001F21F008
:1024600040002168143141E80002002AF3D100BF86
:10247000202084F84200206B01280ED100BF00BF4D
:1024800021680C3151E8001F21F0100021680C3147
:1024900041E80002002AF3D100BF00206063206BF6
:1024A000012804D1A18D2046FFF7E6FB02E020467B
:1024B000FFF7B2FD70BD70B505466C6A0120606320
:1024C000206B012805D1A08D41082046FFF7D4FBE1
:1024D00002E02046FFF7A1FD70BD00BF00BF02680B
:1024E0000C3252E8002F22F4907102680C3242E85C
:1024F0000013002BF3D100BF00BF00BF02681432ED
:1025000052E8002F22F001010268143242E8001361
:10251000002BF3D100BF016B01290ED100BF00BF1A
:1025200002680C3252E8002F22F0100102680C32CF
:1025300042E80013002BF3D100BF202180F84210A5
:1025400000210163704710B504462068C06820F080
:1025500040002168C860202084F841002046FFF731
:102560005DFD002010BD00BF00BF02680C3252E8C4
:10257000002F22F0C00102680C3242E80013002B49
:10258000F3D100BF202180F841107047F8B5044610
:1025900094F84200222875D1A068B0F5805F0CD174
:1025A000206950B90025A66A20684068C0F3080079
:1025B0003080A06A801CA06215E0A56A0026A06891
:1025C000B0F5805F03D0A06828B9206918B92068E9
:1025D0004068287004E02068406800F07F002870A0
:1025E000A06A401CA062E08D401E80B2E0850028F9
:1025F00046D12068C06820F020002168C8602068AB
:10260000C06820F480702168C8602068406920F0AC
:10261000010021684861202084F8420000206063A6
:10262000206B012826D10020206300BF00BF216855
:102630000C3151E8001F21F0100021680C3141E8F5
:102640000002002AF3D100BF2068006800F01000EB
:1026500010280AD100BF0020009020680068009078
:1026600020684068009000BF00BFA18D2046FFF7A2
:1026700003FB02E02046FFF7CFFC0020F8BD01E09D
:102680000020FBE70220F9E777B581B00446154644
:102690000298A062A58500206064222084F8420090
:1026A0002848E16B88622848E16BC8622748E16BE3
:1026B00008630020E16B486302AE32682368191D8D
:1026C0002B46E06BFEF7ACFB00BF002000902068BB
:1026D0000068009020684068009000BF00BF20693B
:1026E00070B100BF00BF21680C3151E8001F41F4F8
:1026F000807021680C3141E80002002AF3D100BF4C
:1027000000BF00BF2168143151E8001F41F00100F3
:102710002168143141E80002002AF3D100BF00BF54
:1027200000BF2168143151E8001F41F040002168CA
:10273000143141E80002002AF3D100BF002004B0A8
:1027400070BD000003240008B7240008B32300086C
:10275000014691F84100212828D18868B0F5805FB2
:102760000BD1086948B90A6A1088C0F308000B68E1
:102770005860086A801C086205E00B6A581C0862F1
:1027800018780B685860C88C401E80B2C88458B94D
:102790000868C06820F080000B68D8600868C068CE
:1027A00040F040000B68D860002070470220FCE732
:1027B00008B5154800680068C0F30010F8B100BF04
:1027C0000020009010480068006800900E480068E3
:1027D0004068009000BF00BF0B48FFF74EFA0B485F
:1027E00080880B4909684968401A0849C880012057
:1027F00008720846828801680348FFF7F7FB024821
:10280000FFF782FA08BD0000240000203C010020F0
:10281000B400002008B5154800680068C0F3001037
:10282000F8B100BF002000901048006800680090D8
:102830000E4800684068009000BF00BF0B48FFF7DB
:102840001CFA0B4880880B4909684968401A0849F6
:10285000C880012008720846828801680348FFF793
:10286000C5FB0248FFF750FA08BD00006C000020CD
:1028700048010020F800002000BFFEE70248006881
:10288000C0F30220704700000CED00E010B50028F6
:1028900004DB0A07130E054A135406E00A07140E58
:1028A000034A00F00F031B1FD45410BD00E400E0E6
:1028B00018ED00E01FB5002001900290039000BFCA
:1028C0002048406940F001001E49486108464069BF
:1028D00000F00100009000BF00BF002211460B2055
:1028E000FEF702FD0B20FEF7EFFC174817490860C2
:1028F00000211648816001210173002101754FF408
:102900006021C16100201149486001210F48016127
:10291000FDF746FF08B1FDF7FDFD01200190029093
:102920000720039001A90948FDF786FE08B1FDF7CD
:10293000F1FD0648FDF7F2FD012205490348FEF7C7
:1029400029F81FBD00100240002401409C03002014
:102950002000002000B585B0002001900290039077
:10296000049000BF6548806940F0040063498861B5
:102970000846806900F00400009000BF00BF00BF5F
:102980000846806940F0080088610846806900F0C8
:102990000800009000BF00BF00BF0846806940F0FB
:1029A000100088610846806900F01000009000BFA8
:1029B00000BF012002900020039002200490000339
:1029C000019001A94E48FEF779FA2020019001A953
:1029D0004C48FEF773FA4FF40060019001A9494892
:1029E000FEF76CFA0220019001A94648FEF766FA4C
:1029F0000120019001A94348FEF760FA8020019070
:102A000001A94148FEF75AFA4020019001A93E4829
:102A1000FEF754FA2020019001A93B48FEF74EFA38
:102A20004FF48050019001A93748FEF747FA4FF460
:102A30000060019001A93448FEF740FA4FF40040CD
:102A4000019001A93048FEF739FA0820019001A948
:102A50002C48FEF733FA1020019001A92948FEF70F
:102A60002DFA002002900120019001A92648FEF7CE
:102A700025FA4FF40040019001A92148FEF71EFA03
:102A80004FF48070019001A91F48FEF717FA4FF428
:102A90000040019001A91B48FEF710FA4FF4804056
:102AA000019001A91748FEF709FA4FF40050019070
:102AB00001A91448FEF702FA4FF48050019001A9D1
:102AC0001048FEF7FBF94FF48060019001A90D4812
:102AD000FEF7F4F94FF48040019001A90848FEF791
:102AE000EDF94FF4005006490861202005491031E6
:102AF00008601020086005B000BD00000010024012
:102B000000100140000C01400008014070B504466F
:102B1000FEF764FB06462546681C10B104480078A1
:102B2000054400BFFEF75AFB801BA842FAD370BDD4
:102B300010000020FEF764FBFFF7EDFB4FF47A7006
:102B4000FFF7E4FFFFF706FFFFF70CFBFFF7B2FE0E
:102B500002E00248FFF73EFBFBE700000000002018
:102B600002030405060708090A0B0C0D0E0F1010CE
:102B7000010202030405060708090A0B0C0D0E0FDB
:102B80001010010200000000000000000102030418
:102B9000060708090000000001020304BC2B00081E
:102BA000000000202400000028010008E02B00089D
:102BB000240000204C0A000044010008000000002E
:102BC00000000000000000001000000001000000F4
:102BD00000127A0000000000000000000000000069
:04000005080000ED02
:00000001FF
